{
  "contractName": "ERC165",
  "abi": [
    {
      "inputs": [],
      "stateMutability": "nonpayable",
      "type": "constructor"
    },
    {
      "inputs": [
        {
          "internalType": "bytes4",
          "name": "interfaceID",
          "type": "bytes4"
        }
      ],
      "name": "supportsInterface",
      "outputs": [
        {
          "internalType": "bool",
          "name": "",
          "type": "bool"
        }
      ],
      "stateMutability": "view",
      "type": "function"
    }
  ],
  "bytecode": "0x608060405234801561001057600080fd5b5061003a7f01ffc9a7a5cef8baa21ed3c5c0d7e23accb804b619e9333b597f47a0d84076e261003f565b6100c2565b6001600160e01b0319808216900361009d5760405162461bcd60e51b815260206004820152601860248201527f496e76616c696420696e74657266616365206e756d6265720000000000000000604482015260640160405180910390fd5b6001600160e01b0319166000908152602081905260409020805460ff19166001179055565b60d0806100d06000396000f3fe6080604052348015600f57600080fd5b506004361060285760003560e01c806301ffc9a714602d575b600080fd5b60576038366004606b565b6001600160e01b03191660009081526020819052604090205460ff1690565b604051901515815260200160405180910390f35b600060208284031215607c57600080fd5b81356001600160e01b031981168114609357600080fd5b939250505056fea264697066735822122096ef1bafc72fed0c2fe4e382a05f5c3281f55e0638e5600ad36b1abf0749097664736f6c634300080e0033",
  "immutableReferences": {},
  "source": "// SPDX-License-Identifier: MIT\r\npragma solidity >=0.4.22 <0.9.0;\r\n\r\nimport './interfaces/IERC165.sol';\r\n\r\n\r\ncontract ERC165 is IERC165 {\r\n    mapping (bytes4 => bool) private _supportedInterfaces;\r\n\r\n    constructor() {\r\n        _registerInterface(bytes4(keccak256('supportsInterface(bytes4)')));\r\n    }\r\n\r\n    function supportsInterface(bytes4 interfaceID) external view override returns (bool) {\r\n        return _supportedInterfaces[interfaceID];\r\n    }\r\n\r\n    function _registerInterface(bytes4 interfaceID) internal {\r\n        require(interfaceID != 0xffffffff, 'Invalid interface number');\r\n        _supportedInterfaces[interfaceID] = true;\r\n    }\r\n}",
  "sourcePath": "C:\\Users\\carlo\\Documents\\Cursos\\NFTs_React_Ethereum\\nft-react-eth-2\\src\\contracts\\ERC165.sol",
  "compiler": {
    "name": "solc",
    "version": "0.8.14+commit.80d49f37.Emscripten.clang"
  },
  "schemaVersion": "3.4.7",
  "updatedAt": "2022-06-14T23:19:09.283Z",
  "devdoc": {
    "kind": "dev",
    "methods": {},
    "version": 1
  },
  "userdoc": {
    "kind": "user",
    "methods": {},
    "version": 1
  }
}