{
  "contractName": "ERC721Metadata",
  "abi": [
    {
      "inputs": [
        {
          "internalType": "string",
          "name": "named",
          "type": "string"
        },
        {
          "internalType": "string",
          "name": "symbolified",
          "type": "string"
        }
      ],
      "stateMutability": "nonpayable",
      "type": "constructor"
    },
    {
      "inputs": [
        {
          "internalType": "bytes4",
          "name": "interfaceID",
          "type": "bytes4"
        }
      ],
      "name": "supportsInterface",
      "outputs": [
        {
          "internalType": "bool",
          "name": "",
          "type": "bool"
        }
      ],
      "stateMutability": "view",
      "type": "function"
    },
    {
      "inputs": [],
      "name": "name",
      "outputs": [
        {
          "internalType": "string",
          "name": "",
          "type": "string"
        }
      ],
      "stateMutability": "view",
      "type": "function"
    },
    {
      "inputs": [],
      "name": "symbol",
      "outputs": [
        {
          "internalType": "string",
          "name": "",
          "type": "string"
        }
      ],
      "stateMutability": "view",
      "type": "function"
    }
  ],
  "bytecode": "0x608060405234801561001057600080fd5b5060405161057638038061057683398101604081905261002f9161028e565b6100587f01ffc9a7a5cef8baa21ed3c5c0d7e23accb804b619e9333b597f47a0d84076e26100b0565b6100817f6c5b7360b116f8fd1d2a1ccb905de5c6a9e91e31b88b8db3cd997e184f357e9f6100b0565b8151610094906001906020850190610133565b5080516100a8906002906020840190610133565b50505061032b565b6001600160e01b0319808216900361010e5760405162461bcd60e51b815260206004820152601860248201527f496e76616c696420696e74657266616365206e756d6265720000000000000000604482015260640160405180910390fd5b6001600160e01b0319166000908152602081905260409020805460ff19166001179055565b82805461013f906102f1565b90600052602060002090601f01602090048101928261016157600085556101a7565b82601f1061017a57805160ff19168380011785556101a7565b828001600101855582156101a7579182015b828111156101a757825182559160200191906001019061018c565b506101b39291506101b7565b5090565b5b808211156101b357600081556001016101b8565b634e487b7160e01b600052604160045260246000fd5b600082601f8301126101f357600080fd5b81516001600160401b038082111561020d5761020d6101cc565b604051601f8301601f19908116603f01168101908282118183101715610235576102356101cc565b8160405283815260209250868385880101111561025157600080fd5b600091505b838210156102735785820183015181830184015290820190610256565b838211156102845760008385830101525b9695505050505050565b600080604083850312156102a157600080fd5b82516001600160401b03808211156102b857600080fd5b6102c4868387016101e2565b935060208501519150808211156102da57600080fd5b506102e7858286016101e2565b9150509250929050565b600181811c9082168061030557607f821691505b60208210810361032557634e487b7160e01b600052602260045260246000fd5b50919050565b61023c8061033a6000396000f3fe608060405234801561001057600080fd5b50600436106100415760003560e01c806301ffc9a71461004657806306fdde031461008857806395d89b411461009d575b600080fd5b610073610054366004610146565b6001600160e01b03191660009081526020819052604090205460ff1690565b60405190151581526020015b60405180910390f35b6100906100a5565b60405161007f9190610177565b610090610137565b6060600180546100b4906101cc565b80601f01602080910402602001604051908101604052809291908181526020018280546100e0906101cc565b801561012d5780601f106101025761010080835404028352916020019161012d565b820191906000526020600020905b81548152906001019060200180831161011057829003601f168201915b5050505050905090565b6060600280546100b4906101cc565b60006020828403121561015857600080fd5b81356001600160e01b03198116811461017057600080fd5b9392505050565b600060208083528351808285015260005b818110156101a457858101830151858201604001528201610188565b818111156101b6576000604083870101525b50601f01601f1916929092016040019392505050565b600181811c908216806101e057607f821691505b60208210810361020057634e487b7160e01b600052602260045260246000fd5b5091905056fea26469706673582212208abf46ce024064fc328ba24842c9c9c4b59efb9ee768bb767659ba802bb1474464736f6c634300080e0033",
  "immutableReferences": {},
  "source": "// SPDX-License-Identifier: MIT\r\npragma solidity >=0.4.22 <0.9.0;\r\n\r\nimport './ERC165.sol';\r\nimport './interfaces/IERC721Metadata.sol';\r\n\r\n\r\ncontract ERC721Metadata is ERC165, IERC721Metadata {\r\n    string private _name;\r\n    string private _symbol;\r\n\r\n    constructor(string memory named, string memory symbolified) {\r\n        _registerInterface(bytes4(\r\n            keccak256('name(bytes4)')^\r\n            keccak256('symbol(bytes4)')\r\n        ));\r\n        _name = named;\r\n        _symbol = symbolified;\r\n    }\r\n\r\n    function name() external view returns (string memory) {\r\n        return _name;\r\n    }\r\n\r\n    function symbol() external view returns (string memory) {\r\n        return _symbol;\r\n    }\r\n}",
  "sourcePath": "C:\\Users\\carlo\\Documents\\Cursos\\NFTs_React_Ethereum\\nft-react-eth-2\\src\\contracts\\ERC721Metadata.sol",
  "compiler": {
    "name": "solc",
    "version": "0.8.14+commit.80d49f37.Emscripten.clang"
  },
  "schemaVersion": "3.4.7",
  "updatedAt": "2022-06-14T23:19:09.317Z",
  "devdoc": {
    "kind": "dev",
    "methods": {},
    "version": 1
  },
  "userdoc": {
    "kind": "user",
    "methods": {},
    "version": 1
  }
}