{
  "contractName": "NFTReactETH",
  "abi": [
    {
      "inputs": [],
      "stateMutability": "nonpayable",
      "type": "constructor"
    },
    {
      "anonymous": false,
      "inputs": [
        {
          "indexed": true,
          "internalType": "address",
          "name": "_owner",
          "type": "address"
        },
        {
          "indexed": true,
          "internalType": "address",
          "name": "_approved",
          "type": "address"
        },
        {
          "indexed": true,
          "internalType": "uint256",
          "name": "_tokenId",
          "type": "uint256"
        }
      ],
      "name": "Approval",
      "type": "event"
    },
    {
      "anonymous": false,
      "inputs": [
        {
          "indexed": true,
          "internalType": "address",
          "name": "from",
          "type": "address"
        },
        {
          "indexed": true,
          "internalType": "address",
          "name": "to",
          "type": "address"
        },
        {
          "indexed": true,
          "internalType": "uint256",
          "name": "tokenId",
          "type": "uint256"
        }
      ],
      "name": "Transfer",
      "type": "event"
    },
    {
      "inputs": [
        {
          "internalType": "address",
          "name": "_to",
          "type": "address"
        },
        {
          "internalType": "uint256",
          "name": "tokenId",
          "type": "uint256"
        }
      ],
      "name": "approve",
      "outputs": [],
      "stateMutability": "nonpayable",
      "type": "function"
    },
    {
      "inputs": [
        {
          "internalType": "address",
          "name": "_owner",
          "type": "address"
        }
      ],
      "name": "balanceOf",
      "outputs": [
        {
          "internalType": "uint256",
          "name": "",
          "type": "uint256"
        }
      ],
      "stateMutability": "view",
      "type": "function",
      "constant": true
    },
    {
      "inputs": [],
      "name": "name",
      "outputs": [
        {
          "internalType": "string",
          "name": "",
          "type": "string"
        }
      ],
      "stateMutability": "view",
      "type": "function",
      "constant": true
    },
    {
      "inputs": [
        {
          "internalType": "uint256",
          "name": "",
          "type": "uint256"
        }
      ],
      "name": "nfts",
      "outputs": [
        {
          "internalType": "string",
          "name": "",
          "type": "string"
        }
      ],
      "stateMutability": "view",
      "type": "function",
      "constant": true
    },
    {
      "inputs": [
        {
          "internalType": "uint256",
          "name": "_tokenId",
          "type": "uint256"
        }
      ],
      "name": "ownerOf",
      "outputs": [
        {
          "internalType": "address",
          "name": "",
          "type": "address"
        }
      ],
      "stateMutability": "view",
      "type": "function",
      "constant": true
    },
    {
      "inputs": [
        {
          "internalType": "bytes4",
          "name": "interfaceID",
          "type": "bytes4"
        }
      ],
      "name": "supportsInterface",
      "outputs": [
        {
          "internalType": "bool",
          "name": "",
          "type": "bool"
        }
      ],
      "stateMutability": "view",
      "type": "function",
      "constant": true
    },
    {
      "inputs": [],
      "name": "symbol",
      "outputs": [
        {
          "internalType": "string",
          "name": "",
          "type": "string"
        }
      ],
      "stateMutability": "view",
      "type": "function",
      "constant": true
    },
    {
      "inputs": [
        {
          "internalType": "uint256",
          "name": "_index",
          "type": "uint256"
        }
      ],
      "name": "tokenByIndex",
      "outputs": [
        {
          "internalType": "uint256",
          "name": "",
          "type": "uint256"
        }
      ],
      "stateMutability": "view",
      "type": "function",
      "constant": true
    },
    {
      "inputs": [
        {
          "internalType": "address",
          "name": "_owner",
          "type": "address"
        },
        {
          "internalType": "uint256",
          "name": "_index",
          "type": "uint256"
        }
      ],
      "name": "tokenOfOwnerByIndex",
      "outputs": [
        {
          "internalType": "uint256",
          "name": "",
          "type": "uint256"
        }
      ],
      "stateMutability": "view",
      "type": "function",
      "constant": true
    },
    {
      "inputs": [],
      "name": "totalSupply",
      "outputs": [
        {
          "internalType": "uint256",
          "name": "",
          "type": "uint256"
        }
      ],
      "stateMutability": "view",
      "type": "function",
      "constant": true
    },
    {
      "inputs": [
        {
          "internalType": "address",
          "name": "_from",
          "type": "address"
        },
        {
          "internalType": "address",
          "name": "_to",
          "type": "address"
        },
        {
          "internalType": "uint256",
          "name": "_tokenId",
          "type": "uint256"
        }
      ],
      "name": "transferFrom",
      "outputs": [],
      "stateMutability": "nonpayable",
      "type": "function"
    },
    {
      "inputs": [
        {
          "internalType": "string",
          "name": "_nft",
          "type": "string"
        }
      ],
      "name": "mint",
      "outputs": [],
      "stateMutability": "nonpayable",
      "type": "function"
    }
  ],
  "bytecode": "0x60806040523480156200001157600080fd5b506040518060400160405280600b81526020016a09c8ca8a4cac2c6e88aa8960ab1b8152506040518060400160405280600781526020016609c8ca8a48aa8960cb1b8152508181620000897f01ffc9a7a5cef8baa21ed3c5c0d7e23accb804b619e9333b597f47a0d84076e26200014260201b60201c565b620000b47f6c5b7360b116f8fd1d2a1ccb905de5c6a9e91e31b88b8db3cd997e184f357e9f62000142565b8151620000c9906001906020850190620001c6565b508051620000df906002906020840190620001c6565b506200010f91507f92d8a794d910422f7549620ed7a8f75c2c42d18032da05c61ed89586344e965e905062000142565b6200013a7f2aa3f4710f58b303977da296b62cadae054c8971d883298d8ed6c6c0565c13c162000142565b5050620002a8565b6001600160e01b03198082169003620001a15760405162461bcd60e51b815260206004820152601860248201527f496e76616c696420696e74657266616365206e756d6265720000000000000000604482015260640160405180910390fd5b6001600160e01b0319166000908152602081905260409020805460ff19166001179055565b828054620001d4906200026c565b90600052602060002090601f016020900481019282620001f8576000855562000243565b82601f106200021357805160ff191683800117855562000243565b8280016001018555821562000243579182015b828111156200024357825182559160200191906001019062000226565b506200025192915062000255565b5090565b5b8082111562000251576000815560010162000256565b600181811c908216806200028157607f821691505b602082108103620002a257634e487b7160e01b600052602260045260246000fd5b50919050565b610f3e80620002b86000396000f3fe608060405234801561001057600080fd5b50600436106100b45760003560e01c80632f745c59116100715780632f745c591461015d5780634f6ccce7146101705780636352211e1461018357806370a08231146101ae57806395d89b41146101c1578063d85d3d27146101c957600080fd5b806301ffc9a7146100b957806306fdde03146100fb578063095ea7b31461011057806318160ddd1461012557806323b872dd14610137578063265aa6211461014a575b600080fd5b6100e66100c7366004610c46565b6001600160e01b03191660009081526020819052604090205460ff1690565b60405190151581526020015b60405180910390f35b6101036101dc565b6040516100f29190610ca7565b61012361011e366004610cf6565b61026e565b005b6006545b6040519081526020016100f2565b610123610145366004610d20565b61039f565b610103610158366004610d5c565b6103c2565b61012961016b366004610cf6565b61046e565b61012961017e366004610d5c565b610504565b610196610191366004610d5c565b610582565b6040516001600160a01b0390911681526020016100f2565b6101296101bc366004610d75565b6105df565b610103610647565b6101236101d7366004610da6565b610656565b6060600180546101eb90610e57565b80601f016020809104026020016040519081016040528092919081815260200182805461021790610e57565b80156102645780601f1061023957610100808354040283529160200191610264565b820191906000526020600020905b81548152906001019060200180831161024757829003601f168201915b5050505050905090565b600061027982610582565b9050806001600160a01b0316836001600160a01b0316036102eb5760405162461bcd60e51b815260206004820152602160248201527f4572726f72202d20617070726f76616c20746f2063757272656e74206f776e656044820152603960f91b60648201526084015b60405180910390fd5b336001600160a01b038216146103435760405162461bcd60e51b815260206004820152601c60248201527f43757272656e742063616c6c6572206d757374206265206f776e65720000000060448201526064016102e2565b60008281526005602052604080822080546001600160a01b0319166001600160a01b0387811691821790925591518593918516917f8c5be1e5ebec7d5bd14f71427d1e84f3dd0314c0f7b2291e5b200ac8c7c3b92591a4505050565b6103a9338261075e565b6103b257600080fd5b6103bd8383836107dc565b505050565b600a81815481106103d257600080fd5b9060005260206000200160009150905080546103ed90610e57565b80601f016020809104026020016040519081016040528092919081815260200182805461041990610e57565b80156104665780601f1061043b57610100808354040283529160200191610466565b820191906000526020600020905b81548152906001019060200180831161044957829003601f168201915b505050505081565b6000610479836105df565b82106104c75760405162461bcd60e51b815260206004820152601960248201527f4f776e657220696e646578206f7574206f6620626f756e64730000000000000060448201526064016102e2565b6001600160a01b03831660009081526008602052604090208054839081106104f1576104f1610e91565b9060005260206000200154905092915050565b600061050f60065490565b821061055d5760405162461bcd60e51b815260206004820152601a60248201527f476c6f62616c20696e646578206f7574206f6620626f756e647300000000000060448201526064016102e2565b6006828154811061057057610570610e91565b90600052602060002001549050919050565b6000818152600360205260408120546001600160a01b0316806105d95760405162461bcd60e51b815260206004820152600f60248201526e41646472657373206973207a65726f60881b60448201526064016102e2565b92915050565b60006001600160a01b0382166106295760405162461bcd60e51b815260206004820152600f60248201526e41646472657373206973207a65726f60881b60448201526064016102e2565b6001600160a01b0382166000908152600460205260409020546105d9565b6060600280546101eb90610e57565b600b816040516106669190610ea7565b9081526040519081900360200190205460ff16156106c65760405162461bcd60e51b815260206004820152601c60248201527f4572726f72202d20546f6b656e20616c7265616479206578697374730000000060448201526064016102e2565b600a80546001810182556000919091528151610709917fc65a7bb8d6351c1cf70c95a316cc6a92839c986682d98bc35f958f4883f9d2a801906020840190610bad565b50600a5460009061071c90600190610ed9565b90506107283382610966565b6001600b8360405161073a9190610ea7565b908152604051908190036020019020805491151560ff199092169190911790555050565b6000818152600360205260408120546001600160a01b03166107ba5760405162461bcd60e51b8152602060048201526015602482015274546f6b656e20646f6573206e6f742065786973747360581b60448201526064016102e2565b60006107c583610582565b6001600160a01b0385811691161491505092915050565b6001600160a01b0382166108425760405162461bcd60e51b815260206004820152602760248201527f4572726f72202d2045524337323120547261736e66657220746f207a65726f206044820152666164647265737360c81b60648201526084016102e2565b826001600160a01b031661085582610582565b6001600160a01b0316146108c85760405162461bcd60e51b815260206004820152603460248201527f547279696e6720746f207472616e73666572206120746f6b656e20746865206160448201527364647265737320646f6573206e6f74206f776e2160601b60648201526084016102e2565b6001600160a01b03831660009081526004602052604090206108e9906109eb565b6001600160a01b038216600090815260046020526040902061090a906109fc565b60008181526003602052604080822080546001600160a01b0319166001600160a01b0386811691821790925591518493918716917fddf252ad1be2c89b69c2b068fc378daa952ba7f163c4a11628f55a4df523b3ef91a4505050565b6109708282610a19565b6001600160a01b039190911660009081526008602090815260408083208054858552600984528285208190556001808201835591855283852001859055600680548686526007909452918420839055820181559091527ff652222313e28459528d920b65115c16c04f3efc82aaedc97be59f3f377c0d3f0155565b80546109f8906001610b47565b9055565b6001816000016000828254610a119190610ef0565b909155505050565b6001600160a01b038216610a6f5760405162461bcd60e51b815260206004820152601e60248201527f455243373231206d696e74696e6720746f207a65726f2061646472657373000060448201526064016102e2565b6000818152600360205260409020546001600160a01b031615610acc5760405162461bcd60e51b815260206004820152601560248201527445524337323120616c72656164792065786973747360581b60448201526064016102e2565b600081815260036020908152604080832080546001600160a01b0319166001600160a01b038716908117909155835260049091529020610b0b906109fc565b60405181906001600160a01b038416906000907fddf252ad1be2c89b69c2b068fc378daa952ba7f163c4a11628f55a4df523b3ef908290a45050565b600082821115610b995760405162461bcd60e51b815260206004820152601e60248201527f536166656d6174683a207375627472616374696f6e206f766572666c6f77000060448201526064016102e2565b6000610ba58385610ed9565b949350505050565b828054610bb990610e57565b90600052602060002090601f016020900481019282610bdb5760008555610c21565b82601f10610bf457805160ff1916838001178555610c21565b82800160010185558215610c21579182015b82811115610c21578251825591602001919060010190610c06565b50610c2d929150610c31565b5090565b5b80821115610c2d5760008155600101610c32565b600060208284031215610c5857600080fd5b81356001600160e01b031981168114610c7057600080fd5b9392505050565b60005b83811015610c92578181015183820152602001610c7a565b83811115610ca1576000848401525b50505050565b6020815260008251806020840152610cc6816040850160208701610c77565b601f01601f19169190910160400192915050565b80356001600160a01b0381168114610cf157600080fd5b919050565b60008060408385031215610d0957600080fd5b610d1283610cda565b946020939093013593505050565b600080600060608486031215610d3557600080fd5b610d3e84610cda565b9250610d4c60208501610cda565b9150604084013590509250925092565b600060208284031215610d6e57600080fd5b5035919050565b600060208284031215610d8757600080fd5b610c7082610cda565b634e487b7160e01b600052604160045260246000fd5b600060208284031215610db857600080fd5b813567ffffffffffffffff80821115610dd057600080fd5b818401915084601f830112610de457600080fd5b813581811115610df657610df6610d90565b604051601f8201601f19908116603f01168101908382118183101715610e1e57610e1e610d90565b81604052828152876020848701011115610e3757600080fd5b826020860160208301376000928101602001929092525095945050505050565b600181811c90821680610e6b57607f821691505b602082108103610e8b57634e487b7160e01b600052602260045260246000fd5b50919050565b634e487b7160e01b600052603260045260246000fd5b60008251610eb9818460208701610c77565b9190910192915050565b634e487b7160e01b600052601160045260246000fd5b600082821015610eeb57610eeb610ec3565b500390565b60008219821115610f0357610f03610ec3565b50019056fea26469706673582212202c9765a936ca627515e811428cb80e585845852137278337ebdb5cdddb3129ed64736f6c634300080e0033",
  "immutableReferences": {},
  "source": "// SPDX-License-Identifier: MIT\r\npragma solidity >=0.4.22 <0.9.0;\r\n\r\nimport './ERC721Connector.sol';\r\n\r\n\r\ncontract NFTReactETH is ERC721Connector {\r\n    string[] public nfts;\r\n\r\n    mapping (string => bool) _nftExists;\r\n\r\n    constructor() ERC721Connector('NFTReactETH', 'NFTRETH') { }\r\n\r\n    function mint(string memory _nft) public {\r\n        require(!_nftExists[_nft], 'Error - Token already exists');\r\n\r\n        nfts.push(_nft);\r\n        uint _tokenId = nfts.length - 1;\r\n\r\n        _mint(msg.sender, _tokenId);\r\n\r\n        _nftExists[_nft] = true;\r\n    }\r\n}",
  "sourcePath": "C:\\Users\\carlo\\Documents\\Cursos\\NFTs_React_Ethereum\\nft-react-eth-2\\src\\contracts\\NFTReactETH.sol",
  "compiler": {
    "name": "solc",
    "version": "0.8.14+commit.80d49f37.Emscripten.clang"
  },
  "schemaVersion": "3.4.7",
  "updatedAt": "2022-06-14T23:19:17.162Z",
  "networkType": "ethereum",
  "devdoc": {
    "kind": "dev",
    "methods": {},
    "version": 1
  },
  "userdoc": {
    "kind": "user",
    "methods": {},
    "version": 1
  }
}