{
  "contractName": "ERC721Connector",
  "abi": [
    {
      "inputs": [
        {
          "internalType": "string",
          "name": "name",
          "type": "string"
        },
        {
          "internalType": "string",
          "name": "symbol",
          "type": "string"
        }
      ],
      "stateMutability": "nonpayable",
      "type": "constructor"
    },
    {
      "anonymous": false,
      "inputs": [
        {
          "indexed": true,
          "internalType": "address",
          "name": "_owner",
          "type": "address"
        },
        {
          "indexed": true,
          "internalType": "address",
          "name": "_approved",
          "type": "address"
        },
        {
          "indexed": true,
          "internalType": "uint256",
          "name": "_tokenId",
          "type": "uint256"
        }
      ],
      "name": "Approval",
      "type": "event"
    },
    {
      "anonymous": false,
      "inputs": [
        {
          "indexed": true,
          "internalType": "address",
          "name": "from",
          "type": "address"
        },
        {
          "indexed": true,
          "internalType": "address",
          "name": "to",
          "type": "address"
        },
        {
          "indexed": true,
          "internalType": "uint256",
          "name": "tokenId",
          "type": "uint256"
        }
      ],
      "name": "Transfer",
      "type": "event"
    },
    {
      "inputs": [
        {
          "internalType": "address",
          "name": "_to",
          "type": "address"
        },
        {
          "internalType": "uint256",
          "name": "tokenId",
          "type": "uint256"
        }
      ],
      "name": "approve",
      "outputs": [],
      "stateMutability": "nonpayable",
      "type": "function"
    },
    {
      "inputs": [
        {
          "internalType": "address",
          "name": "_owner",
          "type": "address"
        }
      ],
      "name": "balanceOf",
      "outputs": [
        {
          "internalType": "uint256",
          "name": "",
          "type": "uint256"
        }
      ],
      "stateMutability": "view",
      "type": "function"
    },
    {
      "inputs": [],
      "name": "name",
      "outputs": [
        {
          "internalType": "string",
          "name": "",
          "type": "string"
        }
      ],
      "stateMutability": "view",
      "type": "function"
    },
    {
      "inputs": [
        {
          "internalType": "uint256",
          "name": "_tokenId",
          "type": "uint256"
        }
      ],
      "name": "ownerOf",
      "outputs": [
        {
          "internalType": "address",
          "name": "",
          "type": "address"
        }
      ],
      "stateMutability": "view",
      "type": "function"
    },
    {
      "inputs": [
        {
          "internalType": "bytes4",
          "name": "interfaceID",
          "type": "bytes4"
        }
      ],
      "name": "supportsInterface",
      "outputs": [
        {
          "internalType": "bool",
          "name": "",
          "type": "bool"
        }
      ],
      "stateMutability": "view",
      "type": "function"
    },
    {
      "inputs": [],
      "name": "symbol",
      "outputs": [
        {
          "internalType": "string",
          "name": "",
          "type": "string"
        }
      ],
      "stateMutability": "view",
      "type": "function"
    },
    {
      "inputs": [
        {
          "internalType": "uint256",
          "name": "_index",
          "type": "uint256"
        }
      ],
      "name": "tokenByIndex",
      "outputs": [
        {
          "internalType": "uint256",
          "name": "",
          "type": "uint256"
        }
      ],
      "stateMutability": "view",
      "type": "function"
    },
    {
      "inputs": [
        {
          "internalType": "address",
          "name": "_owner",
          "type": "address"
        },
        {
          "internalType": "uint256",
          "name": "_index",
          "type": "uint256"
        }
      ],
      "name": "tokenOfOwnerByIndex",
      "outputs": [
        {
          "internalType": "uint256",
          "name": "",
          "type": "uint256"
        }
      ],
      "stateMutability": "view",
      "type": "function"
    },
    {
      "inputs": [],
      "name": "totalSupply",
      "outputs": [
        {
          "internalType": "uint256",
          "name": "",
          "type": "uint256"
        }
      ],
      "stateMutability": "view",
      "type": "function"
    },
    {
      "inputs": [
        {
          "internalType": "address",
          "name": "_from",
          "type": "address"
        },
        {
          "internalType": "address",
          "name": "_to",
          "type": "address"
        },
        {
          "internalType": "uint256",
          "name": "_tokenId",
          "type": "uint256"
        }
      ],
      "name": "transferFrom",
      "outputs": [],
      "stateMutability": "nonpayable",
      "type": "function"
    }
  ],
  "bytecode": "0x60806040523480156200001157600080fd5b5060405162001b6f38038062001b6f833981810160405281019062000037919062000507565b81816200006a7f01ffc9a7a5cef8baa21ed3c5c0d7e23accb804b619e9333b597f47a0d84076e2620001e360201b60201c565b620000bd7f13b182f4c0e5b2efbac0efe6cf6d756c8b89f4b79c5707a043ed9ea740574ee97f7feaf19471f34a12a7eaf32d5f3090aa2260ea8624dc8a138e74e0bf0f62307618620001e360201b60201c565b8160019080519060200190620000d5929190620002ba565b508060029080519060200190620000ee929190620002ba565b505050620001667f22c82707ba960a14c7592ffb6b8cfaa073fed0048a84cc7fa41f6b5bd8e7f2e47f3a6eb71757dfc6e784c1459d26270140c2c147d95ca985c80026fc5301c3eca17f8a7e378434598edc36d108689a030cbc9d7d465de4f74c71bae1028eed6a881b1818620001e360201b60201c565b620001db7f8230223f691b981717299fae9549350a0d894555723531f02108b1f522c1a7977f6da5e1284143cdd2d15038a59bde3be031250f00291d64494c12d967b3a4e0c37fc53637662700e6c65104059db8bba34439e0c32483ab7c34e3ccae52c73954951818620001e360201b60201c565b505062000673565b63ffffffff60e01b817bffffffffffffffffffffffffffffffffffffffffffffffffffffffff1916036200024e576040517f08c379a00000000000000000000000000000000000000000000000000000000081526004016200024590620005ed565b60405180910390fd5b6001600080837bffffffffffffffffffffffffffffffffffffffffffffffffffffffff19167bffffffffffffffffffffffffffffffffffffffffffffffffffffffff1916815260200190815260200160002060006101000a81548160ff02191690831515021790555050565b828054620002c8906200063e565b90600052602060002090601f016020900481019282620002ec576000855562000338565b82601f106200030757805160ff191683800117855562000338565b8280016001018555821562000338579182015b82811115620003375782518255916020019190600101906200031a565b5b5090506200034791906200034b565b5090565b5b80821115620003665760008160009055506001016200034c565b5090565b6000604051905090565b600080fd5b600080fd5b600080fd5b600080fd5b6000601f19601f8301169050919050565b7f4e487b7100000000000000000000000000000000000000000000000000000000600052604160045260246000fd5b620003d38262000388565b810181811067ffffffffffffffff82111715620003f557620003f462000399565b5b80604052505050565b60006200040a6200036a565b9050620004188282620003c8565b919050565b600067ffffffffffffffff8211156200043b576200043a62000399565b5b620004468262000388565b9050602081019050919050565b60005b838110156200047357808201518184015260208101905062000456565b8381111562000483576000848401525b50505050565b6000620004a06200049a846200041d565b620003fe565b905082815260208101848484011115620004bf57620004be62000383565b5b620004cc84828562000453565b509392505050565b600082601f830112620004ec57620004eb6200037e565b5b8151620004fe84826020860162000489565b91505092915050565b6000806040838503121562000521576200052062000374565b5b600083015167ffffffffffffffff81111562000542576200054162000379565b5b6200055085828601620004d4565b925050602083015167ffffffffffffffff81111562000574576200057362000379565b5b6200058285828601620004d4565b9150509250929050565b600082825260208201905092915050565b7f496e76616c696420696e74657266616365206e756d6265720000000000000000600082015250565b6000620005d56018836200058c565b9150620005e2826200059d565b602082019050919050565b600060208201905081810360008301526200060881620005c6565b9050919050565b7f4e487b7100000000000000000000000000000000000000000000000000000000600052602260045260246000fd5b600060028204905060018216806200065757607f821691505b6020821081036200066d576200066c6200060f565b5b50919050565b6114ec80620006836000396000f3fe608060405234801561001057600080fd5b506004361061009e5760003560e01c80632f745c59116100665780632f745c59146101475780634f6ccce7146101775780636352211e146101a757806370a08231146101d757806395d89b41146102075761009e565b806301ffc9a7146100a357806306fdde03146100d3578063095ea7b3146100f157806318160ddd1461010d57806323b872dd1461012b575b600080fd5b6100bd60048036038101906100b89190610c3d565b610225565b6040516100ca9190610c85565b60405180910390f35b6100db61028c565b6040516100e89190610d39565b60405180910390f35b61010b60048036038101906101069190610def565b61031e565b005b6101156104b9565b6040516101229190610e3e565b60405180910390f35b61014560048036038101906101409190610e59565b6104c6565b005b610161600480360381019061015c9190610def565b6104e9565b60405161016e9190610e3e565b60405180910390f35b610191600480360381019061018c9190610eac565b610599565b60405161019e9190610e3e565b60405180910390f35b6101c160048036038101906101bc9190610eac565b61060a565b6040516101ce9190610ee8565b60405180910390f35b6101f160048036038101906101ec9190610f03565b6106bb565b6040516101fe9190610e3e565b60405180910390f35b61020f610779565b60405161021c9190610d39565b60405180910390f35b6000806000837bffffffffffffffffffffffffffffffffffffffffffffffffffffffff19167bffffffffffffffffffffffffffffffffffffffffffffffffffffffff1916815260200190815260200160002060009054906101000a900460ff169050919050565b60606001805461029b90610f5f565b80601f01602080910402602001604051908101604052809291908181526020018280546102c790610f5f565b80156103145780601f106102e957610100808354040283529160200191610314565b820191906000526020600020905b8154815290600101906020018083116102f757829003601f168201915b5050505050905090565b60006103298261060a565b90508073ffffffffffffffffffffffffffffffffffffffff168373ffffffffffffffffffffffffffffffffffffffff1603610399576040517f08c379a000000000000000000000000000000000000000000000000000000000815260040161039090611002565b60405180910390fd5b8073ffffffffffffffffffffffffffffffffffffffff163373ffffffffffffffffffffffffffffffffffffffff1614610407576040517f08c379a00000000000000000000000000000000000000000000000000000000081526004016103fe9061106e565b60405180910390fd5b826005600084815260200190815260200160002060006101000a81548173ffffffffffffffffffffffffffffffffffffffff021916908373ffffffffffffffffffffffffffffffffffffffff160217905550818373ffffffffffffffffffffffffffffffffffffffff168273ffffffffffffffffffffffffffffffffffffffff167f8c5be1e5ebec7d5bd14f71427d1e84f3dd0314c0f7b2291e5b200ac8c7c3b92560405160405180910390a4505050565b6000600680549050905090565b6104d0338261080b565b6104d957600080fd5b6104e483838361089a565b505050565b60006104f4836106bb565b8210610535576040517f08c379a000000000000000000000000000000000000000000000000000000000815260040161052c906110da565b60405180910390fd5b600860008473ffffffffffffffffffffffffffffffffffffffff1673ffffffffffffffffffffffffffffffffffffffff1681526020019081526020016000208281548110610586576105856110fa565b5b9060005260206000200154905092915050565b60006105a36104b9565b82106105e4576040517f08c379a00000000000000000000000000000000000000000000000000000000081526004016105db90611175565b60405180910390fd5b600682815481106105f8576105f76110fa565b5b90600052602060002001549050919050565b6000806003600084815260200190815260200160002060009054906101000a900473ffffffffffffffffffffffffffffffffffffffff169050600073ffffffffffffffffffffffffffffffffffffffff168173ffffffffffffffffffffffffffffffffffffffff16036106b2576040517f08c379a00000000000000000000000000000000000000000000000000000000081526004016106a9906111e1565b60405180910390fd5b80915050919050565b60008073ffffffffffffffffffffffffffffffffffffffff168273ffffffffffffffffffffffffffffffffffffffff160361072b576040517f08c379a0000000000000000000000000000000000000000000000000000000008152600401610722906111e1565b60405180910390fd5b610772600460008473ffffffffffffffffffffffffffffffffffffffff1673ffffffffffffffffffffffffffffffffffffffff168152602001908152602001600020610abf565b9050919050565b60606002805461078890610f5f565b80601f01602080910402602001604051908101604052809291908181526020018280546107b490610f5f565b80156108015780601f106107d657610100808354040283529160200191610801565b820191906000526020600020905b8154815290600101906020018083116107e457829003601f168201915b5050505050905090565b600061081682610acd565b610855576040517f08c379a000000000000000000000000000000000000000000000000000000000815260040161084c9061124d565b60405180910390fd5b60006108608361060a565b90508073ffffffffffffffffffffffffffffffffffffffff168473ffffffffffffffffffffffffffffffffffffffff161491505092915050565b600073ffffffffffffffffffffffffffffffffffffffff168273ffffffffffffffffffffffffffffffffffffffff1603610909576040517f08c379a0000000000000000000000000000000000000000000000000000000008152600401610900906112df565b60405180910390fd5b8273ffffffffffffffffffffffffffffffffffffffff166109298261060a565b73ffffffffffffffffffffffffffffffffffffffff161461097f576040517f08c379a000000000000000000000000000000000000000000000000000000000815260040161097690611371565b60405180910390fd5b6109c6600460008573ffffffffffffffffffffffffffffffffffffffff1673ffffffffffffffffffffffffffffffffffffffff168152602001908152602001600020610b3f565b610a0d600460008473ffffffffffffffffffffffffffffffffffffffff1673ffffffffffffffffffffffffffffffffffffffff168152602001908152602001600020610b62565b816003600083815260200190815260200160002060006101000a81548173ffffffffffffffffffffffffffffffffffffffff021916908373ffffffffffffffffffffffffffffffffffffffff160217905550808273ffffffffffffffffffffffffffffffffffffffff168473ffffffffffffffffffffffffffffffffffffffff167fddf252ad1be2c89b69c2b068fc378daa952ba7f163c4a11628f55a4df523b3ef60405160405180910390a4505050565b600081600001549050919050565b6000806003600084815260200190815260200160002060009054906101000a900473ffffffffffffffffffffffffffffffffffffffff169050600073ffffffffffffffffffffffffffffffffffffffff168173ffffffffffffffffffffffffffffffffffffffff161415915050919050565b610b5760018260000154610b8190919063ffffffff16565b816000018190555050565b6001816000016000828254610b7791906113c0565b9250508190555050565b600082821115610bc6576040517f08c379a0000000000000000000000000000000000000000000000000000000008152600401610bbd90611462565b60405180910390fd5b60008284610bd49190611482565b90508091505092915050565b600080fd5b60007fffffffff0000000000000000000000000000000000000000000000000000000082169050919050565b610c1a81610be5565b8114610c2557600080fd5b50565b600081359050610c3781610c11565b92915050565b600060208284031215610c5357610c52610be0565b5b6000610c6184828501610c28565b91505092915050565b60008115159050919050565b610c7f81610c6a565b82525050565b6000602082019050610c9a6000830184610c76565b92915050565b600081519050919050565b600082825260208201905092915050565b60005b83811015610cda578082015181840152602081019050610cbf565b83811115610ce9576000848401525b50505050565b6000601f19601f8301169050919050565b6000610d0b82610ca0565b610d158185610cab565b9350610d25818560208601610cbc565b610d2e81610cef565b840191505092915050565b60006020820190508181036000830152610d538184610d00565b905092915050565b600073ffffffffffffffffffffffffffffffffffffffff82169050919050565b6000610d8682610d5b565b9050919050565b610d9681610d7b565b8114610da157600080fd5b50565b600081359050610db381610d8d565b92915050565b6000819050919050565b610dcc81610db9565b8114610dd757600080fd5b50565b600081359050610de981610dc3565b92915050565b60008060408385031215610e0657610e05610be0565b5b6000610e1485828601610da4565b9250506020610e2585828601610dda565b9150509250929050565b610e3881610db9565b82525050565b6000602082019050610e536000830184610e2f565b92915050565b600080600060608486031215610e7257610e71610be0565b5b6000610e8086828701610da4565b9350506020610e9186828701610da4565b9250506040610ea286828701610dda565b9150509250925092565b600060208284031215610ec257610ec1610be0565b5b6000610ed084828501610dda565b91505092915050565b610ee281610d7b565b82525050565b6000602082019050610efd6000830184610ed9565b92915050565b600060208284031215610f1957610f18610be0565b5b6000610f2784828501610da4565b91505092915050565b7f4e487b7100000000000000000000000000000000000000000000000000000000600052602260045260246000fd5b60006002820490506001821680610f7757607f821691505b602082108103610f8a57610f89610f30565b5b50919050565b7f4572726f72202d20617070726f76616c20746f2063757272656e74206f776e6560008201527f7200000000000000000000000000000000000000000000000000000000000000602082015250565b6000610fec602183610cab565b9150610ff782610f90565b604082019050919050565b6000602082019050818103600083015261101b81610fdf565b9050919050565b7f43757272656e742063616c6c6572206d757374206265206f776e657200000000600082015250565b6000611058601c83610cab565b915061106382611022565b602082019050919050565b600060208201905081810360008301526110878161104b565b9050919050565b7f4f776e657220696e646578206f7574206f6620626f756e647300000000000000600082015250565b60006110c4601983610cab565b91506110cf8261108e565b602082019050919050565b600060208201905081810360008301526110f3816110b7565b9050919050565b7f4e487b7100000000000000000000000000000000000000000000000000000000600052603260045260246000fd5b7f476c6f62616c20696e646578206f7574206f6620626f756e6473000000000000600082015250565b600061115f601a83610cab565b915061116a82611129565b602082019050919050565b6000602082019050818103600083015261118e81611152565b9050919050565b7f41646472657373206973207a65726f0000000000000000000000000000000000600082015250565b60006111cb600f83610cab565b91506111d682611195565b602082019050919050565b600060208201905081810360008301526111fa816111be565b9050919050565b7f546f6b656e20646f6573206e6f74206578697374730000000000000000000000600082015250565b6000611237601583610cab565b915061124282611201565b602082019050919050565b600060208201905081810360008301526112668161122a565b9050919050565b7f4572726f72202d2045524337323120547261736e66657220746f207a65726f2060008201527f6164647265737300000000000000000000000000000000000000000000000000602082015250565b60006112c9602783610cab565b91506112d48261126d565b604082019050919050565b600060208201905081810360008301526112f8816112bc565b9050919050565b7f547279696e6720746f207472616e73666572206120746f6b656e20746865206160008201527f64647265737320646f6573206e6f74206f776e21000000000000000000000000602082015250565b600061135b603483610cab565b9150611366826112ff565b604082019050919050565b6000602082019050818103600083015261138a8161134e565b9050919050565b7f4e487b7100000000000000000000000000000000000000000000000000000000600052601160045260246000fd5b60006113cb82610db9565b91506113d683610db9565b9250827fffffffffffffffffffffffffffffffffffffffffffffffffffffffffffffffff0382111561140b5761140a611391565b5b828201905092915050565b7f536166656d6174683a207375627472616374696f6e206f766572666c6f770000600082015250565b600061144c601e83610cab565b915061145782611416565b602082019050919050565b6000602082019050818103600083015261147b8161143f565b9050919050565b600061148d82610db9565b915061149883610db9565b9250828210156114ab576114aa611391565b5b82820390509291505056fea26469706673582212206a83b0b34db42d46ac48fdb9af8aba16b46217079c0950e3cc1cd43b6648de1b64736f6c634300080e0033",
  "immutableReferences": {},
  "source": "// SPDX-License-Identifier: MIT\r\npragma solidity >=0.4.22 <0.9.0;\r\n\r\nimport './ERC721Metadata.sol';\r\nimport './ERC721Enumerable.sol';\r\n\r\n\r\ncontract ERC721Connector is ERC721Metadata, ERC721Enumerable {\r\n    /* Despliegue del conector, y alimentacin de los metadatos */\r\n    constructor(string memory name, string memory symbol) ERC721Metadata(name, symbol) {\r\n\r\n    }\r\n}",
  "sourcePath": "C:\\Users\\carlo\\Documents\\Cursos\\NFTs_React_Ethereum\\nft-react-eth\\src\\contracts\\ERC721Connector.sol",
  "compiler": {
    "name": "solc",
    "version": "0.8.14+commit.80d49f37.Emscripten.clang"
  },
  "schemaVersion": "3.4.7",
  "updatedAt": "2022-06-12T22:05:40.977Z",
  "devdoc": {
    "kind": "dev",
    "methods": {},
    "version": 1
  },
  "userdoc": {
    "kind": "user",
    "methods": {},
    "version": 1
  }
}