{
  "contractName": "ERC721Enumerable",
  "abi": [
    {
      "anonymous": false,
      "inputs": [
        {
          "indexed": true,
          "internalType": "address",
          "name": "_owner",
          "type": "address"
        },
        {
          "indexed": true,
          "internalType": "address",
          "name": "_approved",
          "type": "address"
        },
        {
          "indexed": true,
          "internalType": "uint256",
          "name": "_tokenId",
          "type": "uint256"
        }
      ],
      "name": "Approval",
      "type": "event"
    },
    {
      "anonymous": false,
      "inputs": [
        {
          "indexed": true,
          "internalType": "address",
          "name": "from",
          "type": "address"
        },
        {
          "indexed": true,
          "internalType": "address",
          "name": "to",
          "type": "address"
        },
        {
          "indexed": true,
          "internalType": "uint256",
          "name": "tokenId",
          "type": "uint256"
        }
      ],
      "name": "Transfer",
      "type": "event"
    },
    {
      "inputs": [
        {
          "internalType": "address",
          "name": "_to",
          "type": "address"
        },
        {
          "internalType": "uint256",
          "name": "tokenId",
          "type": "uint256"
        }
      ],
      "name": "approve",
      "outputs": [],
      "stateMutability": "nonpayable",
      "type": "function"
    },
    {
      "inputs": [
        {
          "internalType": "address",
          "name": "_owner",
          "type": "address"
        }
      ],
      "name": "balanceOf",
      "outputs": [
        {
          "internalType": "uint256",
          "name": "",
          "type": "uint256"
        }
      ],
      "stateMutability": "view",
      "type": "function"
    },
    {
      "inputs": [
        {
          "internalType": "uint256",
          "name": "_tokenId",
          "type": "uint256"
        }
      ],
      "name": "ownerOf",
      "outputs": [
        {
          "internalType": "address",
          "name": "",
          "type": "address"
        }
      ],
      "stateMutability": "view",
      "type": "function"
    },
    {
      "inputs": [
        {
          "internalType": "address",
          "name": "_from",
          "type": "address"
        },
        {
          "internalType": "address",
          "name": "_to",
          "type": "address"
        },
        {
          "internalType": "uint256",
          "name": "_tokenId",
          "type": "uint256"
        }
      ],
      "name": "transferFrom",
      "outputs": [],
      "stateMutability": "nonpayable",
      "type": "function"
    },
    {
      "inputs": [],
      "name": "totalSupply",
      "outputs": [
        {
          "internalType": "uint256",
          "name": "",
          "type": "uint256"
        }
      ],
      "stateMutability": "view",
      "type": "function"
    },
    {
      "inputs": [
        {
          "internalType": "uint256",
          "name": "_index",
          "type": "uint256"
        }
      ],
      "name": "tokenByIndex",
      "outputs": [
        {
          "internalType": "uint256",
          "name": "",
          "type": "uint256"
        }
      ],
      "stateMutability": "view",
      "type": "function"
    },
    {
      "inputs": [
        {
          "internalType": "address",
          "name": "_owner",
          "type": "address"
        },
        {
          "internalType": "uint256",
          "name": "_index",
          "type": "uint256"
        }
      ],
      "name": "tokenOfOwnerByIndex",
      "outputs": [
        {
          "internalType": "uint256",
          "name": "",
          "type": "uint256"
        }
      ],
      "stateMutability": "view",
      "type": "function"
    }
  ],
  "bytecode": "0x608060405234801561001057600080fd5b50611008806100206000396000f3fe608060405234801561001057600080fd5b506004361061007d5760003560e01c80632f745c591161005b5780632f745c59146100d85780634f6ccce7146101085780636352211e1461013857806370a08231146101685761007d565b8063095ea7b31461008257806318160ddd1461009e57806323b872dd146100bc575b600080fd5b61009c600480360381019061009791906109c6565b610198565b005b6100a6610333565b6040516100b39190610a15565b60405180910390f35b6100d660048036038101906100d19190610a30565b610340565b005b6100f260048036038101906100ed91906109c6565b610363565b6040516100ff9190610a15565b60405180910390f35b610122600480360381019061011d9190610a83565b610413565b60405161012f9190610a15565b60405180910390f35b610152600480360381019061014d9190610a83565b610484565b60405161015f9190610abf565b60405180910390f35b610182600480360381019061017d9190610ada565b610534565b60405161018f9190610a15565b60405180910390f35b60006101a382610484565b90508073ffffffffffffffffffffffffffffffffffffffff168373ffffffffffffffffffffffffffffffffffffffff1603610213576040517f08c379a000000000000000000000000000000000000000000000000000000000815260040161020a90610b8a565b60405180910390fd5b8073ffffffffffffffffffffffffffffffffffffffff163373ffffffffffffffffffffffffffffffffffffffff1614610281576040517f08c379a000000000000000000000000000000000000000000000000000000000815260040161027890610bf6565b60405180910390fd5b826002600084815260200190815260200160002060006101000a81548173ffffffffffffffffffffffffffffffffffffffff021916908373ffffffffffffffffffffffffffffffffffffffff160217905550818373ffffffffffffffffffffffffffffffffffffffff168273ffffffffffffffffffffffffffffffffffffffff167f8c5be1e5ebec7d5bd14f71427d1e84f3dd0314c0f7b2291e5b200ac8c7c3b92560405160405180910390a4505050565b6000600380549050905090565b61034a33826105eb565b61035357600080fd5b61035e83838361067a565b505050565b600061036e83610534565b82106103af576040517f08c379a00000000000000000000000000000000000000000000000000000000081526004016103a690610c62565b60405180910390fd5b600560008473ffffffffffffffffffffffffffffffffffffffff1673ffffffffffffffffffffffffffffffffffffffff1681526020019081526020016000208281548110610400576103ff610c82565b5b9060005260206000200154905092915050565b600061041d610333565b821061045e576040517f08c379a000000000000000000000000000000000000000000000000000000000815260040161045590610cfd565b60405180910390fd5b6003828154811061047257610471610c82565b5b90600052602060002001549050919050565b60008060008084815260200190815260200160002060009054906101000a900473ffffffffffffffffffffffffffffffffffffffff169050600073ffffffffffffffffffffffffffffffffffffffff168173ffffffffffffffffffffffffffffffffffffffff160361052b576040517f08c379a000000000000000000000000000000000000000000000000000000000815260040161052290610d69565b60405180910390fd5b80915050919050565b60008073ffffffffffffffffffffffffffffffffffffffff168273ffffffffffffffffffffffffffffffffffffffff16036105a4576040517f08c379a000000000000000000000000000000000000000000000000000000000815260040161059b90610d69565b60405180910390fd5b600160008373ffffffffffffffffffffffffffffffffffffffff1673ffffffffffffffffffffffffffffffffffffffff168152602001908152602001600020549050919050565b60006105f6826108bc565b610635576040517f08c379a000000000000000000000000000000000000000000000000000000000815260040161062c90610dd5565b60405180910390fd5b600061064083610484565b90508073ffffffffffffffffffffffffffffffffffffffff168473ffffffffffffffffffffffffffffffffffffffff161491505092915050565b600073ffffffffffffffffffffffffffffffffffffffff168273ffffffffffffffffffffffffffffffffffffffff16036106e9576040517f08c379a00000000000000000000000000000000000000000000000000000000081526004016106e090610e67565b60405180910390fd5b8273ffffffffffffffffffffffffffffffffffffffff1661070982610484565b73ffffffffffffffffffffffffffffffffffffffff161461075f576040517f08c379a000000000000000000000000000000000000000000000000000000000815260040161075690610ef9565b60405180910390fd5b60018060008573ffffffffffffffffffffffffffffffffffffffff1673ffffffffffffffffffffffffffffffffffffffff16815260200190815260200160002060008282546107ae9190610f48565b9250508190555060018060008473ffffffffffffffffffffffffffffffffffffffff1673ffffffffffffffffffffffffffffffffffffffff16815260200190815260200160002060008282546108049190610f7c565b925050819055508160008083815260200190815260200160002060006101000a81548173ffffffffffffffffffffffffffffffffffffffff021916908373ffffffffffffffffffffffffffffffffffffffff160217905550808273ffffffffffffffffffffffffffffffffffffffff168473ffffffffffffffffffffffffffffffffffffffff167fddf252ad1be2c89b69c2b068fc378daa952ba7f163c4a11628f55a4df523b3ef60405160405180910390a4505050565b60008060008084815260200190815260200160002060009054906101000a900473ffffffffffffffffffffffffffffffffffffffff169050600073ffffffffffffffffffffffffffffffffffffffff168173ffffffffffffffffffffffffffffffffffffffff161415915050919050565b600080fd5b600073ffffffffffffffffffffffffffffffffffffffff82169050919050565b600061095d82610932565b9050919050565b61096d81610952565b811461097857600080fd5b50565b60008135905061098a81610964565b92915050565b6000819050919050565b6109a381610990565b81146109ae57600080fd5b50565b6000813590506109c08161099a565b92915050565b600080604083850312156109dd576109dc61092d565b5b60006109eb8582860161097b565b92505060206109fc858286016109b1565b9150509250929050565b610a0f81610990565b82525050565b6000602082019050610a2a6000830184610a06565b92915050565b600080600060608486031215610a4957610a4861092d565b5b6000610a578682870161097b565b9350506020610a688682870161097b565b9250506040610a79868287016109b1565b9150509250925092565b600060208284031215610a9957610a9861092d565b5b6000610aa7848285016109b1565b91505092915050565b610ab981610952565b82525050565b6000602082019050610ad46000830184610ab0565b92915050565b600060208284031215610af057610aef61092d565b5b6000610afe8482850161097b565b91505092915050565b600082825260208201905092915050565b7f4572726f72202d20617070726f76616c20746f2063757272656e74206f776e6560008201527f7200000000000000000000000000000000000000000000000000000000000000602082015250565b6000610b74602183610b07565b9150610b7f82610b18565b604082019050919050565b60006020820190508181036000830152610ba381610b67565b9050919050565b7f43757272656e742063616c6c6572206d757374206265206f776e657200000000600082015250565b6000610be0601c83610b07565b9150610beb82610baa565b602082019050919050565b60006020820190508181036000830152610c0f81610bd3565b9050919050565b7f4f776e657220696e646578206f7574206f6620626f756e647300000000000000600082015250565b6000610c4c601983610b07565b9150610c5782610c16565b602082019050919050565b60006020820190508181036000830152610c7b81610c3f565b9050919050565b7f4e487b7100000000000000000000000000000000000000000000000000000000600052603260045260246000fd5b7f476c6f62616c20696e646578206f7574206f6620626f756e6473000000000000600082015250565b6000610ce7601a83610b07565b9150610cf282610cb1565b602082019050919050565b60006020820190508181036000830152610d1681610cda565b9050919050565b7f41646472657373206973207a65726f0000000000000000000000000000000000600082015250565b6000610d53600f83610b07565b9150610d5e82610d1d565b602082019050919050565b60006020820190508181036000830152610d8281610d46565b9050919050565b7f546f6b656e20646f6573206e6f74206578697374730000000000000000000000600082015250565b6000610dbf601583610b07565b9150610dca82610d89565b602082019050919050565b60006020820190508181036000830152610dee81610db2565b9050919050565b7f4572726f72202d2045524337323120547261736e66657220746f207a65726f2060008201527f6164647265737300000000000000000000000000000000000000000000000000602082015250565b6000610e51602783610b07565b9150610e5c82610df5565b604082019050919050565b60006020820190508181036000830152610e8081610e44565b9050919050565b7f547279696e6720746f207472616e73666572206120746f6b656e20746865206160008201527f64647265737320646f6573206e6f74206f776e21000000000000000000000000602082015250565b6000610ee3603483610b07565b9150610eee82610e87565b604082019050919050565b60006020820190508181036000830152610f1281610ed6565b9050919050565b7f4e487b7100000000000000000000000000000000000000000000000000000000600052601160045260246000fd5b6000610f5382610990565b9150610f5e83610990565b925082821015610f7157610f70610f19565b5b828203905092915050565b6000610f8782610990565b9150610f9283610990565b9250827fffffffffffffffffffffffffffffffffffffffffffffffffffffffffffffffff03821115610fc757610fc6610f19565b5b82820190509291505056fea264697066735822122066f32f84ffadafd7e6e601255cb675766e16076433e5330ba623e1f6d0ef276c64736f6c634300080e0033",
  "immutableReferences": {},
  "source": "// SPDX-License-Identifier: MIT\r\npragma solidity >=0.4.22 <0.9.0;\r\n\r\nimport './ERC721.sol';\r\n\r\n\r\ncontract ERC721Enumerable is ERC721 {\r\n    uint256[] private _allTokens;\r\n\r\n    mapping (uint256 => uint256) private _allTokensIndex;\r\n\r\n    mapping (address => uint256[]) private _ownedTokens;\r\n\r\n    mapping (uint256 => uint256) private _ownedTokensIndex;\r\n\r\n    function totalSupply() public view returns (uint256) {\r\n        return _allTokens.length;\r\n    }\r\n\r\n    function _addTokensToAllTokenEnumeration(uint256 tokenId) private {\r\n        _allTokensIndex[tokenId] = _allTokens.length;\r\n        _allTokens.push(tokenId);\r\n    }\r\n\r\n    function _addTokensToOwnerEnumeration(address to, uint256 tokenId) private {\r\n        _ownedTokensIndex[tokenId] = _ownedTokens[to].length;\r\n        _ownedTokens[to].push(tokenId);\r\n    }\r\n\r\n    function _mint(address to, uint256 tokenId) internal override(ERC721) {\r\n        super._mint(to, tokenId);\r\n        _addTokensToOwnerEnumeration(to, tokenId);\r\n        _addTokensToAllTokenEnumeration(tokenId);\r\n    }\r\n\r\n    function tokenByIndex(uint256 _index) public view returns (uint256) {\r\n        require(_index < totalSupply(), 'Global index out of bounds');\r\n        return _allTokens[_index];\r\n    }\r\n\r\n    function tokenOfOwnerByIndex(address _owner, uint256 _index) public view returns (uint256) {\r\n        require(_index < balanceOf(_owner), 'Owner index out of bounds');\r\n        return _ownedTokens[_owner][_index];\r\n    }\r\n}",
  "sourcePath": "C:\\Users\\carlo\\Documents\\Cursos\\NFTs_React_Ethereum\\nft-react-eth\\src\\contracts\\ERC721Enumerable.sol",
  "compiler": {
    "name": "solc",
    "version": "0.8.14+commit.80d49f37.Emscripten.clang"
  },
  "schemaVersion": "3.4.7",
  "updatedAt": "2022-06-08T01:04:08.710Z",
  "devdoc": {
    "kind": "dev",
    "methods": {},
    "version": 1
  },
  "userdoc": {
    "kind": "user",
    "methods": {},
    "version": 1
  }
}