{
  "contractName": "NFTReactETH",
  "abi": [
    {
      "inputs": [],
      "stateMutability": "nonpayable",
      "type": "constructor"
    },
    {
      "anonymous": false,
      "inputs": [
        {
          "indexed": true,
          "internalType": "address",
          "name": "_owner",
          "type": "address"
        },
        {
          "indexed": true,
          "internalType": "address",
          "name": "_approved",
          "type": "address"
        },
        {
          "indexed": true,
          "internalType": "uint256",
          "name": "_tokenId",
          "type": "uint256"
        }
      ],
      "name": "Approval",
      "type": "event"
    },
    {
      "anonymous": false,
      "inputs": [
        {
          "indexed": true,
          "internalType": "address",
          "name": "from",
          "type": "address"
        },
        {
          "indexed": true,
          "internalType": "address",
          "name": "to",
          "type": "address"
        },
        {
          "indexed": true,
          "internalType": "uint256",
          "name": "tokenId",
          "type": "uint256"
        }
      ],
      "name": "Transfer",
      "type": "event"
    },
    {
      "inputs": [
        {
          "internalType": "address",
          "name": "_to",
          "type": "address"
        },
        {
          "internalType": "uint256",
          "name": "tokenId",
          "type": "uint256"
        }
      ],
      "name": "approve",
      "outputs": [],
      "stateMutability": "nonpayable",
      "type": "function"
    },
    {
      "inputs": [
        {
          "internalType": "address",
          "name": "_owner",
          "type": "address"
        }
      ],
      "name": "balanceOf",
      "outputs": [
        {
          "internalType": "uint256",
          "name": "",
          "type": "uint256"
        }
      ],
      "stateMutability": "view",
      "type": "function",
      "constant": true
    },
    {
      "inputs": [],
      "name": "name",
      "outputs": [
        {
          "internalType": "string",
          "name": "",
          "type": "string"
        }
      ],
      "stateMutability": "view",
      "type": "function",
      "constant": true
    },
    {
      "inputs": [
        {
          "internalType": "uint256",
          "name": "",
          "type": "uint256"
        }
      ],
      "name": "nfts",
      "outputs": [
        {
          "internalType": "string",
          "name": "",
          "type": "string"
        }
      ],
      "stateMutability": "view",
      "type": "function",
      "constant": true
    },
    {
      "inputs": [
        {
          "internalType": "uint256",
          "name": "_tokenId",
          "type": "uint256"
        }
      ],
      "name": "ownerOf",
      "outputs": [
        {
          "internalType": "address",
          "name": "",
          "type": "address"
        }
      ],
      "stateMutability": "view",
      "type": "function",
      "constant": true
    },
    {
      "inputs": [],
      "name": "symbol",
      "outputs": [
        {
          "internalType": "string",
          "name": "",
          "type": "string"
        }
      ],
      "stateMutability": "view",
      "type": "function",
      "constant": true
    },
    {
      "inputs": [
        {
          "internalType": "uint256",
          "name": "_index",
          "type": "uint256"
        }
      ],
      "name": "tokenByIndex",
      "outputs": [
        {
          "internalType": "uint256",
          "name": "",
          "type": "uint256"
        }
      ],
      "stateMutability": "view",
      "type": "function",
      "constant": true
    },
    {
      "inputs": [
        {
          "internalType": "address",
          "name": "_owner",
          "type": "address"
        },
        {
          "internalType": "uint256",
          "name": "_index",
          "type": "uint256"
        }
      ],
      "name": "tokenOfOwnerByIndex",
      "outputs": [
        {
          "internalType": "uint256",
          "name": "",
          "type": "uint256"
        }
      ],
      "stateMutability": "view",
      "type": "function",
      "constant": true
    },
    {
      "inputs": [],
      "name": "totalSupply",
      "outputs": [
        {
          "internalType": "uint256",
          "name": "",
          "type": "uint256"
        }
      ],
      "stateMutability": "view",
      "type": "function",
      "constant": true
    },
    {
      "inputs": [
        {
          "internalType": "address",
          "name": "_from",
          "type": "address"
        },
        {
          "internalType": "address",
          "name": "_to",
          "type": "address"
        },
        {
          "internalType": "uint256",
          "name": "_tokenId",
          "type": "uint256"
        }
      ],
      "name": "transferFrom",
      "outputs": [],
      "stateMutability": "nonpayable",
      "type": "function"
    },
    {
      "inputs": [
        {
          "internalType": "string",
          "name": "_nft",
          "type": "string"
        }
      ],
      "name": "mint",
      "outputs": [],
      "stateMutability": "nonpayable",
      "type": "function"
    }
  ],
  "bytecode": "0x60806040523480156200001157600080fd5b506040518060400160405280600b81526020017f4e465452656163744554480000000000000000000000000000000000000000008152506040518060400160405280600781526020017f4e465452455448000000000000000000000000000000000000000000000000008152508181816000908051906020019062000098929190620000bc565b508060019080519060200190620000b1929190620000bc565b5050505050620001d0565b828054620000ca906200019b565b90600052602060002090601f016020900481019282620000ee57600085556200013a565b82601f106200010957805160ff19168380011785556200013a565b828001600101855582156200013a579182015b82811115620001395782518255916020019190600101906200011c565b5b5090506200014991906200014d565b5090565b5b80821115620001685760008160009055506001016200014e565b5090565b7f4e487b7100000000000000000000000000000000000000000000000000000000600052602260045260246000fd5b60006002820490506001821680620001b457607f821691505b602082108103620001ca57620001c96200016c565b5b50919050565b611b5480620001e06000396000f3fe608060405234801561001057600080fd5b50600436106100a95760003560e01c80632f745c59116100715780632f745c59146101525780634f6ccce7146101825780636352211e146101b257806370a08231146101e257806395d89b4114610212578063d85d3d2714610230576100a9565b806306fdde03146100ae578063095ea7b3146100cc57806318160ddd146100e857806323b872dd14610106578063265aa62114610122575b600080fd5b6100b661024c565b6040516100c391906110e4565b60405180910390f35b6100e660048036038101906100e191906111ae565b6102de565b005b6100f0610479565b6040516100fd91906111fd565b60405180910390f35b610120600480360381019061011b9190611218565b610486565b005b61013c6004803603810190610137919061126b565b6104a9565b60405161014991906110e4565b60405180910390f35b61016c600480360381019061016791906111ae565b610555565b60405161017991906111fd565b60405180910390f35b61019c6004803603810190610197919061126b565b610605565b6040516101a991906111fd565b60405180910390f35b6101cc60048036038101906101c7919061126b565b610676565b6040516101d991906112a7565b60405180910390f35b6101fc60048036038101906101f791906112c2565b610727565b60405161020991906111fd565b60405180910390f35b61021a6107de565b60405161022791906110e4565b60405180910390f35b61024a60048036038101906102459190611424565b610870565b005b60606000805461025b9061149c565b80601f01602080910402602001604051908101604052809291908181526020018280546102879061149c565b80156102d45780601f106102a9576101008083540402835291602001916102d4565b820191906000526020600020905b8154815290600101906020018083116102b757829003601f168201915b5050505050905090565b60006102e982610676565b90508073ffffffffffffffffffffffffffffffffffffffff168373ffffffffffffffffffffffffffffffffffffffff1603610359576040517f08c379a00000000000000000000000000000000000000000000000000000000081526004016103509061153f565b60405180910390fd5b8073ffffffffffffffffffffffffffffffffffffffff163373ffffffffffffffffffffffffffffffffffffffff16146103c7576040517f08c379a00000000000000000000000000000000000000000000000000000000081526004016103be906115ab565b60405180910390fd5b826004600084815260200190815260200160002060006101000a81548173ffffffffffffffffffffffffffffffffffffffff021916908373ffffffffffffffffffffffffffffffffffffffff160217905550818373ffffffffffffffffffffffffffffffffffffffff168273ffffffffffffffffffffffffffffffffffffffff167f8c5be1e5ebec7d5bd14f71427d1e84f3dd0314c0f7b2291e5b200ac8c7c3b92560405160405180910390a4505050565b6000600580549050905090565b6104903382610973565b61049957600080fd5b6104a4838383610a02565b505050565b600981815481106104b957600080fd5b9060005260206000200160009150905080546104d49061149c565b80601f01602080910402602001604051908101604052809291908181526020018280546105009061149c565b801561054d5780601f106105225761010080835404028352916020019161054d565b820191906000526020600020905b81548152906001019060200180831161053057829003601f168201915b505050505081565b600061056083610727565b82106105a1576040517f08c379a000000000000000000000000000000000000000000000000000000000815260040161059890611617565b60405180910390fd5b600760008473ffffffffffffffffffffffffffffffffffffffff1673ffffffffffffffffffffffffffffffffffffffff16815260200190815260200160002082815481106105f2576105f1611637565b5b9060005260206000200154905092915050565b600061060f610479565b8210610650576040517f08c379a0000000000000000000000000000000000000000000000000000000008152600401610647906116b2565b60405180910390fd5b6005828154811061066457610663611637565b5b90600052602060002001549050919050565b6000806002600084815260200190815260200160002060009054906101000a900473ffffffffffffffffffffffffffffffffffffffff169050600073ffffffffffffffffffffffffffffffffffffffff168173ffffffffffffffffffffffffffffffffffffffff160361071e576040517f08c379a00000000000000000000000000000000000000000000000000000000081526004016107159061171e565b60405180910390fd5b80915050919050565b60008073ffffffffffffffffffffffffffffffffffffffff168273ffffffffffffffffffffffffffffffffffffffff1603610797576040517f08c379a000000000000000000000000000000000000000000000000000000000815260040161078e9061171e565b60405180910390fd5b600360008373ffffffffffffffffffffffffffffffffffffffff1673ffffffffffffffffffffffffffffffffffffffff168152602001908152602001600020549050919050565b6060600180546107ed9061149c565b80601f01602080910402602001604051908101604052809291908181526020018280546108199061149c565b80156108665780601f1061083b57610100808354040283529160200191610866565b820191906000526020600020905b81548152906001019060200180831161084957829003601f168201915b5050505050905090565b600a81604051610880919061177a565b908152602001604051809103902060009054906101000a900460ff16156108dc576040517f08c379a00000000000000000000000000000000000000000000000000000000081526004016108d3906117dd565b60405180910390fd5b600981908060018154018082558091505060019003906000526020600020016000909190919091509080519060200190610917929190610fa8565b506000600160098054905061092c919061182c565b90506109383382610c47565b6001600a8360405161094a919061177a565b908152602001604051809103902060006101000a81548160ff0219169083151502179055505050565b600061097e82610c68565b6109bd576040517f08c379a00000000000000000000000000000000000000000000000000000000081526004016109b4906118ac565b60405180910390fd5b60006109c883610676565b90508073ffffffffffffffffffffffffffffffffffffffff168473ffffffffffffffffffffffffffffffffffffffff161491505092915050565b600073ffffffffffffffffffffffffffffffffffffffff168273ffffffffffffffffffffffffffffffffffffffff1603610a71576040517f08c379a0000000000000000000000000000000000000000000000000000000008152600401610a689061193e565b60405180910390fd5b8273ffffffffffffffffffffffffffffffffffffffff16610a9182610676565b73ffffffffffffffffffffffffffffffffffffffff1614610ae7576040517f08c379a0000000000000000000000000000000000000000000000000000000008152600401610ade906119d0565b60405180910390fd5b6001600360008573ffffffffffffffffffffffffffffffffffffffff1673ffffffffffffffffffffffffffffffffffffffff1681526020019081526020016000206000828254610b37919061182c565b925050819055506001600360008473ffffffffffffffffffffffffffffffffffffffff1673ffffffffffffffffffffffffffffffffffffffff1681526020019081526020016000206000828254610b8e91906119f0565b92505081905550816002600083815260200190815260200160002060006101000a81548173ffffffffffffffffffffffffffffffffffffffff021916908373ffffffffffffffffffffffffffffffffffffffff160217905550808273ffffffffffffffffffffffffffffffffffffffff168473ffffffffffffffffffffffffffffffffffffffff167fddf252ad1be2c89b69c2b068fc378daa952ba7f163c4a11628f55a4df523b3ef60405160405180910390a4505050565b610c518282610cda565b610c5b8282610e9b565b610c6481610f5f565b5050565b6000806002600084815260200190815260200160002060009054906101000a900473ffffffffffffffffffffffffffffffffffffffff169050600073ffffffffffffffffffffffffffffffffffffffff168173ffffffffffffffffffffffffffffffffffffffff161415915050919050565b600073ffffffffffffffffffffffffffffffffffffffff168273ffffffffffffffffffffffffffffffffffffffff1603610d49576040517f08c379a0000000000000000000000000000000000000000000000000000000008152600401610d4090611a92565b60405180910390fd5b610d5281610c68565b15610d92576040517f08c379a0000000000000000000000000000000000000000000000000000000008152600401610d8990611afe565b60405180910390fd5b816002600083815260200190815260200160002060006101000a81548173ffffffffffffffffffffffffffffffffffffffff021916908373ffffffffffffffffffffffffffffffffffffffff1602179055506001600360008473ffffffffffffffffffffffffffffffffffffffff1673ffffffffffffffffffffffffffffffffffffffff1681526020019081526020016000206000828254610e3491906119f0565b92505081905550808273ffffffffffffffffffffffffffffffffffffffff16600073ffffffffffffffffffffffffffffffffffffffff167fddf252ad1be2c89b69c2b068fc378daa952ba7f163c4a11628f55a4df523b3ef60405160405180910390a45050565b600760008373ffffffffffffffffffffffffffffffffffffffff1673ffffffffffffffffffffffffffffffffffffffff168152602001908152602001600020805490506008600083815260200190815260200160002081905550600760008373ffffffffffffffffffffffffffffffffffffffff1673ffffffffffffffffffffffffffffffffffffffff1681526020019081526020016000208190806001815401808255809150506001900390600052602060002001600090919091909150555050565b6005805490506006600083815260200190815260200160002081905550600581908060018154018082558091505060019003906000526020600020016000909190919091505550565b828054610fb49061149c565b90600052602060002090601f016020900481019282610fd6576000855561101d565b82601f10610fef57805160ff191683800117855561101d565b8280016001018555821561101d579182015b8281111561101c578251825591602001919060010190611001565b5b50905061102a919061102e565b5090565b5b8082111561104757600081600090555060010161102f565b5090565b600081519050919050565b600082825260208201905092915050565b60005b8381101561108557808201518184015260208101905061106a565b83811115611094576000848401525b50505050565b6000601f19601f8301169050919050565b60006110b68261104b565b6110c08185611056565b93506110d0818560208601611067565b6110d98161109a565b840191505092915050565b600060208201905081810360008301526110fe81846110ab565b905092915050565b6000604051905090565b600080fd5b600080fd5b600073ffffffffffffffffffffffffffffffffffffffff82169050919050565b60006111458261111a565b9050919050565b6111558161113a565b811461116057600080fd5b50565b6000813590506111728161114c565b92915050565b6000819050919050565b61118b81611178565b811461119657600080fd5b50565b6000813590506111a881611182565b92915050565b600080604083850312156111c5576111c4611110565b5b60006111d385828601611163565b92505060206111e485828601611199565b9150509250929050565b6111f781611178565b82525050565b600060208201905061121260008301846111ee565b92915050565b60008060006060848603121561123157611230611110565b5b600061123f86828701611163565b935050602061125086828701611163565b925050604061126186828701611199565b9150509250925092565b60006020828403121561128157611280611110565b5b600061128f84828501611199565b91505092915050565b6112a18161113a565b82525050565b60006020820190506112bc6000830184611298565b92915050565b6000602082840312156112d8576112d7611110565b5b60006112e684828501611163565b91505092915050565b600080fd5b600080fd5b7f4e487b7100000000000000000000000000000000000000000000000000000000600052604160045260246000fd5b6113318261109a565b810181811067ffffffffffffffff821117156113505761134f6112f9565b5b80604052505050565b6000611363611106565b905061136f8282611328565b919050565b600067ffffffffffffffff82111561138f5761138e6112f9565b5b6113988261109a565b9050602081019050919050565b82818337600083830152505050565b60006113c76113c284611374565b611359565b9050828152602081018484840111156113e3576113e26112f4565b5b6113ee8482856113a5565b509392505050565b600082601f83011261140b5761140a6112ef565b5b813561141b8482602086016113b4565b91505092915050565b60006020828403121561143a57611439611110565b5b600082013567ffffffffffffffff81111561145857611457611115565b5b611464848285016113f6565b91505092915050565b7f4e487b7100000000000000000000000000000000000000000000000000000000600052602260045260246000fd5b600060028204905060018216806114b457607f821691505b6020821081036114c7576114c661146d565b5b50919050565b7f4572726f72202d20617070726f76616c20746f2063757272656e74206f776e6560008201527f7200000000000000000000000000000000000000000000000000000000000000602082015250565b6000611529602183611056565b9150611534826114cd565b604082019050919050565b600060208201905081810360008301526115588161151c565b9050919050565b7f43757272656e742063616c6c6572206d757374206265206f776e657200000000600082015250565b6000611595601c83611056565b91506115a08261155f565b602082019050919050565b600060208201905081810360008301526115c481611588565b9050919050565b7f4f776e657220696e646578206f7574206f6620626f756e647300000000000000600082015250565b6000611601601983611056565b915061160c826115cb565b602082019050919050565b60006020820190508181036000830152611630816115f4565b9050919050565b7f4e487b7100000000000000000000000000000000000000000000000000000000600052603260045260246000fd5b7f476c6f62616c20696e646578206f7574206f6620626f756e6473000000000000600082015250565b600061169c601a83611056565b91506116a782611666565b602082019050919050565b600060208201905081810360008301526116cb8161168f565b9050919050565b7f41646472657373206973207a65726f0000000000000000000000000000000000600082015250565b6000611708600f83611056565b9150611713826116d2565b602082019050919050565b60006020820190508181036000830152611737816116fb565b9050919050565b600081905092915050565b60006117548261104b565b61175e818561173e565b935061176e818560208601611067565b80840191505092915050565b60006117868284611749565b915081905092915050565b7f4572726f72202d20546f6b656e20616c72656164792065786973747300000000600082015250565b60006117c7601c83611056565b91506117d282611791565b602082019050919050565b600060208201905081810360008301526117f6816117ba565b9050919050565b7f4e487b7100000000000000000000000000000000000000000000000000000000600052601160045260246000fd5b600061183782611178565b915061184283611178565b925082821015611855576118546117fd565b5b828203905092915050565b7f546f6b656e20646f6573206e6f74206578697374730000000000000000000000600082015250565b6000611896601583611056565b91506118a182611860565b602082019050919050565b600060208201905081810360008301526118c581611889565b9050919050565b7f4572726f72202d2045524337323120547261736e66657220746f207a65726f2060008201527f6164647265737300000000000000000000000000000000000000000000000000602082015250565b6000611928602783611056565b9150611933826118cc565b604082019050919050565b600060208201905081810360008301526119578161191b565b9050919050565b7f547279696e6720746f207472616e73666572206120746f6b656e20746865206160008201527f64647265737320646f6573206e6f74206f776e21000000000000000000000000602082015250565b60006119ba603483611056565b91506119c58261195e565b604082019050919050565b600060208201905081810360008301526119e9816119ad565b9050919050565b60006119fb82611178565b9150611a0683611178565b9250827fffffffffffffffffffffffffffffffffffffffffffffffffffffffffffffffff03821115611a3b57611a3a6117fd565b5b828201905092915050565b7f455243373231206d696e74696e6720746f207a65726f20616464726573730000600082015250565b6000611a7c601e83611056565b9150611a8782611a46565b602082019050919050565b60006020820190508181036000830152611aab81611a6f565b9050919050565b7f45524337323120616c7265616479206578697374730000000000000000000000600082015250565b6000611ae8601583611056565b9150611af382611ab2565b602082019050919050565b60006020820190508181036000830152611b1781611adb565b905091905056fea26469706673582212208f3a11e3e7cd1d9c64eb858af1cd9f873fdf4a1aea46f767692472e423e6fde664736f6c634300080e0033",
  "immutableReferences": {},
  "source": "// SPDX-License-Identifier: MIT\r\npragma solidity >=0.4.22 <0.9.0;\r\n\r\nimport './ERC721Connector.sol';\r\n\r\n\r\ncontract NFTReactETH is ERC721Connector {\r\n    string[] public nfts;\r\n\r\n    mapping (string => bool) _nftExists;\r\n\r\n    constructor() ERC721Connector('NFTReactETH', 'NFTRETH') { }\r\n\r\n    function mint(string memory _nft) public {\r\n        require(!_nftExists[_nft], 'Error - Token already exists');\r\n\r\n        nfts.push(_nft);\r\n        uint _tokenId = nfts.length - 1;\r\n\r\n        _mint(msg.sender, _tokenId);\r\n\r\n        _nftExists[_nft] = true;\r\n    }\r\n}",
  "sourcePath": "C:\\Users\\carlo\\Documents\\Cursos\\NFTs_React_Ethereum\\nft-react-eth\\src\\contracts\\NFTReactETH.sol",
  "compiler": {
    "name": "solc",
    "version": "0.8.14+commit.80d49f37.Emscripten.clang"
  },
  "schemaVersion": "3.4.7",
  "updatedAt": "2022-06-08T01:04:18.169Z",
  "networkType": "ethereum",
  "devdoc": {
    "kind": "dev",
    "methods": {},
    "version": 1
  },
  "userdoc": {
    "kind": "user",
    "methods": {},
    "version": 1
  }
}