{
  "contractName": "NFTReactETH",
  "abi": [
    {
      "inputs": [],
      "stateMutability": "nonpayable",
      "type": "constructor"
    },
    {
      "anonymous": false,
      "inputs": [
        {
          "indexed": true,
          "internalType": "address",
          "name": "_owner",
          "type": "address"
        },
        {
          "indexed": true,
          "internalType": "address",
          "name": "_approved",
          "type": "address"
        },
        {
          "indexed": true,
          "internalType": "uint256",
          "name": "_tokenId",
          "type": "uint256"
        }
      ],
      "name": "Approval",
      "type": "event"
    },
    {
      "anonymous": false,
      "inputs": [
        {
          "indexed": true,
          "internalType": "address",
          "name": "from",
          "type": "address"
        },
        {
          "indexed": true,
          "internalType": "address",
          "name": "to",
          "type": "address"
        },
        {
          "indexed": true,
          "internalType": "uint256",
          "name": "tokenId",
          "type": "uint256"
        }
      ],
      "name": "Transfer",
      "type": "event"
    },
    {
      "inputs": [
        {
          "internalType": "address",
          "name": "_to",
          "type": "address"
        },
        {
          "internalType": "uint256",
          "name": "tokenId",
          "type": "uint256"
        }
      ],
      "name": "approve",
      "outputs": [],
      "stateMutability": "nonpayable",
      "type": "function"
    },
    {
      "inputs": [
        {
          "internalType": "address",
          "name": "_owner",
          "type": "address"
        }
      ],
      "name": "balanceOf",
      "outputs": [
        {
          "internalType": "uint256",
          "name": "",
          "type": "uint256"
        }
      ],
      "stateMutability": "view",
      "type": "function"
    },
    {
      "inputs": [],
      "name": "name",
      "outputs": [
        {
          "internalType": "string",
          "name": "",
          "type": "string"
        }
      ],
      "stateMutability": "view",
      "type": "function"
    },
    {
      "inputs": [
        {
          "internalType": "uint256",
          "name": "",
          "type": "uint256"
        }
      ],
      "name": "nfts",
      "outputs": [
        {
          "internalType": "string",
          "name": "",
          "type": "string"
        }
      ],
      "stateMutability": "view",
      "type": "function"
    },
    {
      "inputs": [
        {
          "internalType": "uint256",
          "name": "_tokenId",
          "type": "uint256"
        }
      ],
      "name": "ownerOf",
      "outputs": [
        {
          "internalType": "address",
          "name": "",
          "type": "address"
        }
      ],
      "stateMutability": "view",
      "type": "function"
    },
    {
      "inputs": [
        {
          "internalType": "bytes4",
          "name": "interfaceID",
          "type": "bytes4"
        }
      ],
      "name": "supportsInterface",
      "outputs": [
        {
          "internalType": "bool",
          "name": "",
          "type": "bool"
        }
      ],
      "stateMutability": "view",
      "type": "function"
    },
    {
      "inputs": [],
      "name": "symbol",
      "outputs": [
        {
          "internalType": "string",
          "name": "",
          "type": "string"
        }
      ],
      "stateMutability": "view",
      "type": "function"
    },
    {
      "inputs": [
        {
          "internalType": "uint256",
          "name": "_index",
          "type": "uint256"
        }
      ],
      "name": "tokenByIndex",
      "outputs": [
        {
          "internalType": "uint256",
          "name": "",
          "type": "uint256"
        }
      ],
      "stateMutability": "view",
      "type": "function"
    },
    {
      "inputs": [
        {
          "internalType": "address",
          "name": "_owner",
          "type": "address"
        },
        {
          "internalType": "uint256",
          "name": "_index",
          "type": "uint256"
        }
      ],
      "name": "tokenOfOwnerByIndex",
      "outputs": [
        {
          "internalType": "uint256",
          "name": "",
          "type": "uint256"
        }
      ],
      "stateMutability": "view",
      "type": "function"
    },
    {
      "inputs": [],
      "name": "totalSupply",
      "outputs": [
        {
          "internalType": "uint256",
          "name": "",
          "type": "uint256"
        }
      ],
      "stateMutability": "view",
      "type": "function"
    },
    {
      "inputs": [
        {
          "internalType": "address",
          "name": "_from",
          "type": "address"
        },
        {
          "internalType": "address",
          "name": "_to",
          "type": "address"
        },
        {
          "internalType": "uint256",
          "name": "_tokenId",
          "type": "uint256"
        }
      ],
      "name": "transferFrom",
      "outputs": [],
      "stateMutability": "nonpayable",
      "type": "function"
    },
    {
      "inputs": [
        {
          "internalType": "string",
          "name": "_nft",
          "type": "string"
        }
      ],
      "name": "mint",
      "outputs": [],
      "stateMutability": "nonpayable",
      "type": "function"
    }
  ],
  "bytecode": "0x60806040523480156200001157600080fd5b506040518060400160405280600b81526020017f4e465452656163744554480000000000000000000000000000000000000000008152506040518060400160405280600781526020017f4e4654524554480000000000000000000000000000000000000000000000000081525081818160009080519060200190620000989291906200023a565b508060019080519060200190620000b19291906200023a565b505050620000e57f01ffc9a7a5cef8baa21ed3c5c0d7e23accb804b619e9333b597f47a0d84076e26200016260201b60201c565b6200015a7f22c82707ba960a14c7592ffb6b8cfaa073fed0048a84cc7fa41f6b5bd8e7f2e47f3a6eb71757dfc6e784c1459d26270140c2c147d95ca985c80026fc5301c3eca17f8a7e378434598edc36d108689a030cbc9d7d465de4f74c71bae1028eed6a881b18186200016260201b60201c565b5050620003d1565b63ffffffff60e01b817bffffffffffffffffffffffffffffffffffffffffffffffffffffffff191603620001cd576040517f08c379a0000000000000000000000000000000000000000000000000000000008152600401620001c4906200034b565b60405180910390fd5b600160026000837bffffffffffffffffffffffffffffffffffffffffffffffffffffffff19167bffffffffffffffffffffffffffffffffffffffffffffffffffffffff1916815260200190815260200160002060006101000a81548160ff02191690831515021790555050565b82805462000248906200039c565b90600052602060002090601f0160209004810192826200026c5760008555620002b8565b82601f106200028757805160ff1916838001178555620002b8565b82800160010185558215620002b8579182015b82811115620002b75782518255916020019190600101906200029a565b5b509050620002c79190620002cb565b5090565b5b80821115620002e6576000816000905550600101620002cc565b5090565b600082825260208201905092915050565b7f496e76616c696420696e74657266616365206e756d6265720000000000000000600082015250565b600062000333601883620002ea565b91506200034082620002fb565b602082019050919050565b60006020820190508181036000830152620003668162000324565b9050919050565b7f4e487b7100000000000000000000000000000000000000000000000000000000600052602260045260246000fd5b60006002820490506001821680620003b557607f821691505b602082108103620003cb57620003ca6200036d565b5b50919050565b611da480620003e16000396000f3fe608060405234801561001057600080fd5b50600436106100b45760003560e01c80632f745c59116100715780632f745c591461018d5780634f6ccce7146101bd5780636352211e146101ed57806370a082311461021d57806395d89b411461024d578063d85d3d271461026b576100b4565b806301ffc9a7146100b957806306fdde03146100e9578063095ea7b31461010757806318160ddd1461012357806323b872dd14610141578063265aa6211461015d575b600080fd5b6100d360048036038101906100ce91906111e0565b610287565b6040516100e09190611228565b60405180910390f35b6100f16102ef565b6040516100fe91906112dc565b60405180910390f35b610121600480360381019061011c9190611392565b610381565b005b61012b61051c565b60405161013891906113e1565b60405180910390f35b61015b600480360381019061015691906113fc565b610529565b005b6101776004803603810190610172919061144f565b61054c565b60405161018491906112dc565b60405180910390f35b6101a760048036038101906101a29190611392565b6105f8565b6040516101b491906113e1565b60405180910390f35b6101d760048036038101906101d2919061144f565b6106a8565b6040516101e491906113e1565b60405180910390f35b6102076004803603810190610202919061144f565b610719565b604051610214919061148b565b60405180910390f35b610237600480360381019061023291906114a6565b6107ca565b60405161024491906113e1565b60405180910390f35b610255610888565b60405161026291906112dc565b60405180910390f35b61028560048036038101906102809190611608565b61091a565b005b600060026000837bffffffffffffffffffffffffffffffffffffffffffffffffffffffff19167bffffffffffffffffffffffffffffffffffffffffffffffffffffffff1916815260200190815260200160002060009054906101000a900460ff169050919050565b6060600080546102fe90611680565b80601f016020809104026020016040519081016040528092919081815260200182805461032a90611680565b80156103775780601f1061034c57610100808354040283529160200191610377565b820191906000526020600020905b81548152906001019060200180831161035a57829003601f168201915b5050505050905090565b600061038c82610719565b90508073ffffffffffffffffffffffffffffffffffffffff168373ffffffffffffffffffffffffffffffffffffffff16036103fc576040517f08c379a00000000000000000000000000000000000000000000000000000000081526004016103f390611723565b60405180910390fd5b8073ffffffffffffffffffffffffffffffffffffffff163373ffffffffffffffffffffffffffffffffffffffff161461046a576040517f08c379a00000000000000000000000000000000000000000000000000000000081526004016104619061178f565b60405180910390fd5b826005600084815260200190815260200160002060006101000a81548173ffffffffffffffffffffffffffffffffffffffff021916908373ffffffffffffffffffffffffffffffffffffffff160217905550818373ffffffffffffffffffffffffffffffffffffffff168273ffffffffffffffffffffffffffffffffffffffff167f8c5be1e5ebec7d5bd14f71427d1e84f3dd0314c0f7b2291e5b200ac8c7c3b92560405160405180910390a4505050565b6000600680549050905090565b6105333382610a1d565b61053c57600080fd5b610547838383610aac565b505050565b600a818154811061055c57600080fd5b90600052602060002001600091509050805461057790611680565b80601f01602080910402602001604051908101604052809291908181526020018280546105a390611680565b80156105f05780601f106105c5576101008083540402835291602001916105f0565b820191906000526020600020905b8154815290600101906020018083116105d357829003601f168201915b505050505081565b6000610603836107ca565b8210610644576040517f08c379a000000000000000000000000000000000000000000000000000000000815260040161063b906117fb565b60405180910390fd5b600860008473ffffffffffffffffffffffffffffffffffffffff1673ffffffffffffffffffffffffffffffffffffffff16815260200190815260200160002082815481106106955761069461181b565b5b9060005260206000200154905092915050565b60006106b261051c565b82106106f3576040517f08c379a00000000000000000000000000000000000000000000000000000000081526004016106ea90611896565b60405180910390fd5b600682815481106107075761070661181b565b5b90600052602060002001549050919050565b6000806003600084815260200190815260200160002060009054906101000a900473ffffffffffffffffffffffffffffffffffffffff169050600073ffffffffffffffffffffffffffffffffffffffff168173ffffffffffffffffffffffffffffffffffffffff16036107c1576040517f08c379a00000000000000000000000000000000000000000000000000000000081526004016107b890611902565b60405180910390fd5b80915050919050565b60008073ffffffffffffffffffffffffffffffffffffffff168273ffffffffffffffffffffffffffffffffffffffff160361083a576040517f08c379a000000000000000000000000000000000000000000000000000000000815260040161083190611902565b60405180910390fd5b610881600460008473ffffffffffffffffffffffffffffffffffffffff1673ffffffffffffffffffffffffffffffffffffffff168152602001908152602001600020610cd1565b9050919050565b60606001805461089790611680565b80601f01602080910402602001604051908101604052809291908181526020018280546108c390611680565b80156109105780601f106108e557610100808354040283529160200191610910565b820191906000526020600020905b8154815290600101906020018083116108f357829003601f168201915b5050505050905090565b600b8160405161092a919061195e565b908152602001604051809103902060009054906101000a900460ff1615610986576040517f08c379a000000000000000000000000000000000000000000000000000000000815260040161097d906119c1565b60405180910390fd5b600a819080600181540180825580915050600190039060005260206000200160009091909190915090805190602001906109c19291906110d1565b5060006001600a805490506109d69190611a10565b90506109e23382610cdf565b6001600b836040516109f4919061195e565b908152602001604051809103902060006101000a81548160ff0219169083151502179055505050565b6000610a2882610d00565b610a67576040517f08c379a0000000000000000000000000000000000000000000000000000000008152600401610a5e90611a90565b60405180910390fd5b6000610a7283610719565b90508073ffffffffffffffffffffffffffffffffffffffff168473ffffffffffffffffffffffffffffffffffffffff161491505092915050565b600073ffffffffffffffffffffffffffffffffffffffff168273ffffffffffffffffffffffffffffffffffffffff1603610b1b576040517f08c379a0000000000000000000000000000000000000000000000000000000008152600401610b1290611b22565b60405180910390fd5b8273ffffffffffffffffffffffffffffffffffffffff16610b3b82610719565b73ffffffffffffffffffffffffffffffffffffffff1614610b91576040517f08c379a0000000000000000000000000000000000000000000000000000000008152600401610b8890611bb4565b60405180910390fd5b610bd8600460008573ffffffffffffffffffffffffffffffffffffffff1673ffffffffffffffffffffffffffffffffffffffff168152602001908152602001600020610d72565b610c1f600460008473ffffffffffffffffffffffffffffffffffffffff1673ffffffffffffffffffffffffffffffffffffffff168152602001908152602001600020610d95565b816003600083815260200190815260200160002060006101000a81548173ffffffffffffffffffffffffffffffffffffffff021916908373ffffffffffffffffffffffffffffffffffffffff160217905550808273ffffffffffffffffffffffffffffffffffffffff168473ffffffffffffffffffffffffffffffffffffffff167fddf252ad1be2c89b69c2b068fc378daa952ba7f163c4a11628f55a4df523b3ef60405160405180910390a4505050565b600081600001549050919050565b610ce98282610db4565b610cf38282610f65565b610cfc81611029565b5050565b6000806003600084815260200190815260200160002060009054906101000a900473ffffffffffffffffffffffffffffffffffffffff169050600073ffffffffffffffffffffffffffffffffffffffff168173ffffffffffffffffffffffffffffffffffffffff161415915050919050565b610d8a6001826000015461107290919063ffffffff16565b816000018190555050565b6001816000016000828254610daa9190611bd4565b9250508190555050565b600073ffffffffffffffffffffffffffffffffffffffff168273ffffffffffffffffffffffffffffffffffffffff1603610e23576040517f08c379a0000000000000000000000000000000000000000000000000000000008152600401610e1a90611c76565b60405180910390fd5b610e2c81610d00565b15610e6c576040517f08c379a0000000000000000000000000000000000000000000000000000000008152600401610e6390611ce2565b60405180910390fd5b816003600083815260200190815260200160002060006101000a81548173ffffffffffffffffffffffffffffffffffffffff021916908373ffffffffffffffffffffffffffffffffffffffff160217905550610f05600460008473ffffffffffffffffffffffffffffffffffffffff1673ffffffffffffffffffffffffffffffffffffffff168152602001908152602001600020610d95565b808273ffffffffffffffffffffffffffffffffffffffff16600073ffffffffffffffffffffffffffffffffffffffff167fddf252ad1be2c89b69c2b068fc378daa952ba7f163c4a11628f55a4df523b3ef60405160405180910390a45050565b600860008373ffffffffffffffffffffffffffffffffffffffff1673ffffffffffffffffffffffffffffffffffffffff168152602001908152602001600020805490506009600083815260200190815260200160002081905550600860008373ffffffffffffffffffffffffffffffffffffffff1673ffffffffffffffffffffffffffffffffffffffff1681526020019081526020016000208190806001815401808255809150506001900390600052602060002001600090919091909150555050565b6006805490506007600083815260200190815260200160002081905550600681908060018154018082558091505060019003906000526020600020016000909190919091505550565b6000828211156110b7576040517f08c379a00000000000000000000000000000000000000000000000000000000081526004016110ae90611d4e565b60405180910390fd5b600082846110c59190611a10565b90508091505092915050565b8280546110dd90611680565b90600052602060002090601f0160209004810192826110ff5760008555611146565b82601f1061111857805160ff1916838001178555611146565b82800160010185558215611146579182015b8281111561114557825182559160200191906001019061112a565b5b5090506111539190611157565b5090565b5b80821115611170576000816000905550600101611158565b5090565b6000604051905090565b600080fd5b600080fd5b60007fffffffff0000000000000000000000000000000000000000000000000000000082169050919050565b6111bd81611188565b81146111c857600080fd5b50565b6000813590506111da816111b4565b92915050565b6000602082840312156111f6576111f561117e565b5b6000611204848285016111cb565b91505092915050565b60008115159050919050565b6112228161120d565b82525050565b600060208201905061123d6000830184611219565b92915050565b600081519050919050565b600082825260208201905092915050565b60005b8381101561127d578082015181840152602081019050611262565b8381111561128c576000848401525b50505050565b6000601f19601f8301169050919050565b60006112ae82611243565b6112b8818561124e565b93506112c881856020860161125f565b6112d181611292565b840191505092915050565b600060208201905081810360008301526112f681846112a3565b905092915050565b600073ffffffffffffffffffffffffffffffffffffffff82169050919050565b6000611329826112fe565b9050919050565b6113398161131e565b811461134457600080fd5b50565b60008135905061135681611330565b92915050565b6000819050919050565b61136f8161135c565b811461137a57600080fd5b50565b60008135905061138c81611366565b92915050565b600080604083850312156113a9576113a861117e565b5b60006113b785828601611347565b92505060206113c88582860161137d565b9150509250929050565b6113db8161135c565b82525050565b60006020820190506113f660008301846113d2565b92915050565b6000806000606084860312156114155761141461117e565b5b600061142386828701611347565b935050602061143486828701611347565b92505060406114458682870161137d565b9150509250925092565b6000602082840312156114655761146461117e565b5b60006114738482850161137d565b91505092915050565b6114858161131e565b82525050565b60006020820190506114a0600083018461147c565b92915050565b6000602082840312156114bc576114bb61117e565b5b60006114ca84828501611347565b91505092915050565b600080fd5b600080fd5b7f4e487b7100000000000000000000000000000000000000000000000000000000600052604160045260246000fd5b61151582611292565b810181811067ffffffffffffffff82111715611534576115336114dd565b5b80604052505050565b6000611547611174565b9050611553828261150c565b919050565b600067ffffffffffffffff821115611573576115726114dd565b5b61157c82611292565b9050602081019050919050565b82818337600083830152505050565b60006115ab6115a684611558565b61153d565b9050828152602081018484840111156115c7576115c66114d8565b5b6115d2848285611589565b509392505050565b600082601f8301126115ef576115ee6114d3565b5b81356115ff848260208601611598565b91505092915050565b60006020828403121561161e5761161d61117e565b5b600082013567ffffffffffffffff81111561163c5761163b611183565b5b611648848285016115da565b91505092915050565b7f4e487b7100000000000000000000000000000000000000000000000000000000600052602260045260246000fd5b6000600282049050600182168061169857607f821691505b6020821081036116ab576116aa611651565b5b50919050565b7f4572726f72202d20617070726f76616c20746f2063757272656e74206f776e6560008201527f7200000000000000000000000000000000000000000000000000000000000000602082015250565b600061170d60218361124e565b9150611718826116b1565b604082019050919050565b6000602082019050818103600083015261173c81611700565b9050919050565b7f43757272656e742063616c6c6572206d757374206265206f776e657200000000600082015250565b6000611779601c8361124e565b915061178482611743565b602082019050919050565b600060208201905081810360008301526117a88161176c565b9050919050565b7f4f776e657220696e646578206f7574206f6620626f756e647300000000000000600082015250565b60006117e560198361124e565b91506117f0826117af565b602082019050919050565b60006020820190508181036000830152611814816117d8565b9050919050565b7f4e487b7100000000000000000000000000000000000000000000000000000000600052603260045260246000fd5b7f476c6f62616c20696e646578206f7574206f6620626f756e6473000000000000600082015250565b6000611880601a8361124e565b915061188b8261184a565b602082019050919050565b600060208201905081810360008301526118af81611873565b9050919050565b7f41646472657373206973207a65726f0000000000000000000000000000000000600082015250565b60006118ec600f8361124e565b91506118f7826118b6565b602082019050919050565b6000602082019050818103600083015261191b816118df565b9050919050565b600081905092915050565b600061193882611243565b6119428185611922565b935061195281856020860161125f565b80840191505092915050565b600061196a828461192d565b915081905092915050565b7f4572726f72202d20546f6b656e20616c72656164792065786973747300000000600082015250565b60006119ab601c8361124e565b91506119b682611975565b602082019050919050565b600060208201905081810360008301526119da8161199e565b9050919050565b7f4e487b7100000000000000000000000000000000000000000000000000000000600052601160045260246000fd5b6000611a1b8261135c565b9150611a268361135c565b925082821015611a3957611a386119e1565b5b828203905092915050565b7f546f6b656e20646f6573206e6f74206578697374730000000000000000000000600082015250565b6000611a7a60158361124e565b9150611a8582611a44565b602082019050919050565b60006020820190508181036000830152611aa981611a6d565b9050919050565b7f4572726f72202d2045524337323120547261736e66657220746f207a65726f2060008201527f6164647265737300000000000000000000000000000000000000000000000000602082015250565b6000611b0c60278361124e565b9150611b1782611ab0565b604082019050919050565b60006020820190508181036000830152611b3b81611aff565b9050919050565b7f547279696e6720746f207472616e73666572206120746f6b656e20746865206160008201527f64647265737320646f6573206e6f74206f776e21000000000000000000000000602082015250565b6000611b9e60348361124e565b9150611ba982611b42565b604082019050919050565b60006020820190508181036000830152611bcd81611b91565b9050919050565b6000611bdf8261135c565b9150611bea8361135c565b9250827fffffffffffffffffffffffffffffffffffffffffffffffffffffffffffffffff03821115611c1f57611c1e6119e1565b5b828201905092915050565b7f455243373231206d696e74696e6720746f207a65726f20616464726573730000600082015250565b6000611c60601e8361124e565b9150611c6b82611c2a565b602082019050919050565b60006020820190508181036000830152611c8f81611c53565b9050919050565b7f45524337323120616c7265616479206578697374730000000000000000000000600082015250565b6000611ccc60158361124e565b9150611cd782611c96565b602082019050919050565b60006020820190508181036000830152611cfb81611cbf565b9050919050565b7f536166656d6174683a207375627472616374696f6e206f766572666c6f770000600082015250565b6000611d38601e8361124e565b9150611d4382611d02565b602082019050919050565b60006020820190508181036000830152611d6781611d2b565b905091905056fea26469706673582212201657e27d1b12d4d4f38f23aef5d11a2136aeb7e86b7f207f5f492a53a1f9a6fa64736f6c634300080e0033",
  "immutableReferences": {},
  "source": "// SPDX-License-Identifier: MIT\r\npragma solidity >=0.4.22 <0.9.0;\r\n\r\nimport './ERC721Connector.sol';\r\n\r\n\r\ncontract NFTReactETH is ERC721Connector {\r\n    string[] public nfts;\r\n\r\n    mapping (string => bool) _nftExists;\r\n\r\n    constructor() ERC721Connector('NFTReactETH', 'NFTRETH') { }\r\n\r\n    function mint(string memory _nft) public {\r\n        require(!_nftExists[_nft], 'Error - Token already exists');\r\n\r\n        nfts.push(_nft);\r\n        uint _tokenId = nfts.length - 1;\r\n\r\n        _mint(msg.sender, _tokenId);\r\n\r\n        _nftExists[_nft] = true;\r\n    }\r\n}",
  "sourcePath": "C:\\Users\\carlo\\Documents\\Cursos\\NFTs_React_Ethereum\\nft-react-eth\\src\\contracts\\NFTReactETH.sol",
  "compiler": {
    "name": "solc",
    "version": "0.8.14+commit.80d49f37.Emscripten.clang"
  },
  "schemaVersion": "3.4.7",
  "updatedAt": "2022-06-10T01:17:46.446Z",
  "devdoc": {
    "kind": "dev",
    "methods": {},
    "version": 1
  },
  "userdoc": {
    "kind": "user",
    "methods": {},
    "version": 1
  }
}